:100000000C94AB020C94E3020C94E3020C94E30214
:100010000C94E3020C94E3020C94E3020C94E302CC
:100020000C94E3020C94E3020C94780E0C94BA0D39
:100030000C9430160C94E3020C94E3020C94E3024B
:100040000C94E3020C94E3020C94E3020C94E3029C
:100050000C94E3020C944F0F0C94E3020C94E30213
:100060000C94E3020C94E3020C94E3020C94E3027C
:100070000C94E3020C94E3020C94E3020C94E3026C
:100080000C94E3020C94E3020C94E3020C94E3025C
:100090000C94E3020C94E3020C94E3020C94E3024C
:1000A0000C94E3020C94E3020C94E3025605CA0597
:1000B0005E0528052C0562052F05650570053A05C6
:1000C000C0053E05740542057805A20546057C0578
:1000D000AC054C0582058C053305690536056C05B4
:1000E000510587059805B805BA0524055A05D305B5
:1000F000FE050406F205F8050A06100616060D07A9
:100100000D073F073F07B107EE08EE08EE08CF07DF
:100110005D086E086E081C093F09440949094E092B
:10012000530958095D09620967096C097309760961
:1001300079097C097F098209850988098B09900959
:10014000D90B000C980D000C980D480C6B0C980DF9
:100150005A0D6D0D05010980A101850319012AB70A
:1001600000150126B700950175108100C0050C0926
:1001700001A101850419012AA002150126A00295FA
:100180000175108100C005010906A101850605075A
:1001900019E029E715002501950875018102050779
:1001A000190029EF1500250195F075018102050858
:1001B00019012905950575019102950175039101B4
:1001C000C005010906A101050719E029E715002569
:1001D00001950875018102950175088101050719CE
:1001E0000029FF150026FF00950675088100050807
:1001F0001901290515002501950575019102950143
:1002000075039101C009023B00020100A0FA090434
:100210000000010301010009211101000122440035
:100220000705810308000109040100010300000023
:10023000092111010001226D000705820320000140
:10024000120100020000000853444107300001027F
:100250000001120370006E0063006100740065000D
:1002600068006F0000000C03610072006F007500F1
:100270006D000000040309040500090017000D00CB
:100280000B00060011001C001B001600222325266F
:1002900028292A2C2D2F3032333536383A3B3D3E33
:1002A0004042434547494A4C4E5051535557595A7D
:1002B0005C5E6062646668696B6D6F717375777997
:1002C0007B7D7F81838587898A8C8E909294969896
:1002D0009A9C9E9FA1A3A5A7A8AAACAEAFB1B3B4A8
:1002E000B6B8B9BBBCBEBFC1C2C3C5C6C7C9CACBFD
:1002F000CCCDCED0D1D2D2D3D4D5D6D7D7D8D9D9C8
:10030000DADADBDBDBDCDCDCDCDCDDDDDDDDDCDC30
:10031000DCDCDCDBDBDBDADAD9D9D8D7D7D6D5D44D
:10032000D3D2D2D1D0CECDCCCBCAC9C7C6C5C3C219
:10033000C1BFBEBCBBB9B8B6B4B3B1AFAEACAAA86E
:10034000A7A5A3A19F9E9C9A98969492908E8C8A22
:1003500089878583817F7D7B79777573716F6D6BFD
:100360006968666462605E5C5A5957555351504ED5
:100370004C4A4947454342403E3D3B3A3836353387
:1003800032302F2D2C2A2928262523220000000078
:10039000000000000000000000000000000000005D
:1003A000000000000000000000000000000000004D
:1003B0007E0F00D4FFFFFFC70000007800000000A0
:1003C000000000002A2B28000000000000000000B0
:1003D0000000000000000029000000002C1E342056
:1003E000212224342627252E362D3738271E1F207C
:1003F0002122232425263333362E37381F040506C1
:100400000708090A0B0C0D0E0F1011121314151604
:100410001718191A1B1C1D2F3130232D3504050602
:100420000708090A0B0C0D0E0F10111213141516E4
:100430001718191A1B1C1D2F3130354C1E0F0500C3
:10044000047F3F1F643214643214783C1E1E140A69
:100450000500010101010101010101020202020284
:10046000020202020303030303030303040404045C
:100470000404040505050505060606060607070724
:10048000070708080808090909090A0A0A0B0B0BDB
:100490000C0C0C0D0D0D0E0E0E0F0F0F1010111178
:1004A00011121213131414151516161717181819FC
:1004B000191A1A1B1B1C1D1D1E1E1F202021222263
:1004C000232424252626272829292A2B2C2D2D2EA6
:1004D0002F30313232333435363738393A3B3C3DC0
:1004E0003E3F404142434445464748494A4C4D4EB1
:1004F0004F50515354555658595A5B5D5E5F616277
:1005000064656668696B6C6D6F7072737577787A05
:100510007B7D7E8082838587888A8C8E8F91939560
:1005200096989A9C9EA0A2A3A5A7A9ABADAFB1B384
:10053000B5B7BABCBEC0C2C4C6C9CBCDCFD1D4D664
:10054000D8DBDDDFE2E4E7E9EBEEF0F3F5F8FAFD06
:10055000FFFFAA7F554011241FBECFEFDAE0DEBFB8
:10056000CDBF04B603FE18C08091D4029091D5028D
:10057000A091D602B091D7028730904BA740B04BE4
:1005800059F41092D4021092D5021092D602109211
:10059000D702E0E0F8E3099511E0A0E0B1E0EEE970
:1005A000F6E402C005900D92AA38B107D9F722E00F
:1005B000AAE8B1E001C01D92A43DB207E1F70E9494
:1005C000471A0C944D230C9400009C013A95211578
:1005D0003F4130F5BC0166277270AC01442754706E
:1005E0009C012227387094FF0FC090FF02C080E169
:1005F00001C080E0672B09F08062452B09F0806420
:10060000232B79F080680895892F8170672B09F07A
:100610008260452B09F08460232B19F088600895CF
:1006200080E00895A6E0B0E0E8E1F3E00C94D42285
:1006300049835A8349815A81992361F0222351F0D9
:10064000CA010E94601F182F682F89819A810E9419
:10065000D41F04C0CA010E94A11F182F69817A818A
:10066000812F0E941B112696E3E00C94F0220E9439
:1006700057202FEF84E39CE0215080409040E1F729
:1006800000C000009CE088E10FB6F894A895809324
:1006900060000FBE90936000FFCFEF92FF920F9328
:1006A0001F93CF93DF93EC018B017C0180EEE81A5E
:1006B000F10898E0E916F10410F0209731F4CE012A
:1006C0000E94E5020E94932005C0CE010E94E5022F
:1006D0000E9482208C2F0E94C9200115110549F02B
:1006E0008FE99FE00197F1F700C000000150110968
:1006F000F4CF8C2F0E949D2098E0E916F10410F0B1
:10070000209731F4CE010E94E5020E948C2005C0A2
:10071000CE010E94E5020E947720CDB7DEB7E6E069
:100720000C94ED22ABE1B0E0E8E9F3E00C94D322C5
:100730004E8B5F8B688F798F8A8F9B8F192F9111CA
:1007400010924802DE011F9687E0FD0111928A9502
:10075000E9F786E0FE01769601900D928A95E1F721
:100760000A8D002341F021E04F85588969897A89F3
:10077000C8010E9412030B8B1C8B87E0FE013F9681
:10078000DE01189601900D928A95E1F7CE01089648
:100790000E94D01381112CC087E0FE013896DE0143
:1007A000119601900D928A95E1F76C85662301F10F
:1007B0002091EC0130E0C9010196877099274091A2
:1007C000250250E08417950761F16D8397E0929FB1
:1007D000D001939FB00D1124A351BE4FFE0131965D
:1007E00001900D929A95E1F78093EC010E946D13B0
:1007F00017E0809125029091EC018917F9F0189F7C
:10080000C001112483519E4F0E94D0138823B1F060
:100810008091250290E001968770992780932502A8
:10082000E8CF0E9457201092EC0110922502E5EECD
:10083000F1E087E0DF011D928A95E9F76B96E4E02D
:100840000C94EF22A0E0B0E0E8E2F4E00C94CE22B9
:10085000FC018481882309F474C57F0121E0408173
:1008600051816281738195810E941203EC01F7012D
:100870008581882319F1C433FCE7DF07C1F050F408
:10088000C2338CE7D80789F0C3339CE7D907B1F4AA
:1008900081E012C0C633ECE7DE0769F050F0C733E1
:1008A0002CE7D20759F485E007C080E005C082E05C
:1008B00003C083E001C084E00E94C917F70185816D
:1008C0008E0108511C47882309F498C0D7FF81C1C5
:1008D0000E94001780938D019091AF02913029F40E
:1008E00081FF03C089E30E943821809149028093EF
:1008F0008C0110924902109248028091AF0282301E
:1009000019F148F48823E1F08130C9F560E070E026
:1009100088E193E032C0843049F1853081F560E0B0
:1009200070E08BE191E00E944D0360E070E085E2B1
:1009300090E00E944D0360E070E088E290E01DC00E
:1009400082EE0E94C9201BC080918D0180FD03C0F2
:1009500083E50E94382182EE0E94C9208FE39CE942
:100960000197F1F700C0000087E504C086EE0E9401
:10097000382188E10E94382102C00E944D03EFE334
:10098000FCE93197F1F700C00000BE017F7780E0FD
:1009900090E00E9482178091AF028230F1F028F43B
:1009A000882371F0813081F025C0843009F18530D1
:1009B00009F560E070E088E290E00E944D031AC003
:1009C00082EE0E949D2016C08CE20E943821809108
:1009D0008D0181FF0FC089E308C082EE0E949D2037
:1009E00080918D0180FD06C083E50E94382102C000
:1009F00088E2FBCF80918C0180934902073011057A
:100A000008F4EBC0F7018581882309F43FC11092F7
:100A1000B202CE019057839708F011C184E090E0B4
:100A20000E94C1219093950180939401FE01E150B1
:100A3000F047E232F10520F4EA5AFF4F0C94B0225D
:100A4000809194018160ACC0809195018860B4C0B0
:100A5000809194018260A4C08091940120C0809113
:100A6000940188609DC0809195011EC08091950180
:100A70008260A2C080919401806192C080919401B3
:100A800080628EC08091940180648AC00E94572049
:100A900080919401806884C0809194018860846012
:100AA0007FC0809195018260816086C080919401B1
:100AB0008E7F76C080919501877F7EC08091940162
:100AC0008D7F6EC08091940120C080919401877FBA
:100AD00067C0809195011EC0809195018D7F6CC08B
:100AE000809194018F7E5CC0809194018F7D58C06D
:100AF000809194018F7B54C00E9457208091940173
:100B00008F774EC080919401877F8B7F49C0809101
:100B100095018D7F8E7F50C08091940182FB2227AA
:100B200020F991E0922790FB82F990FB83F938C07D
:100B300080919501982F909591708E7F892B90FBD5
:100B400081F93AC08091940186FB222720F991E037
:100B5000922790FB86F924C00E945720809194012F
:100B600087FB222720F991E0922790FB87F918C094
:100B700061E001C060E08EE090E00E94D7211EC0DD
:100B80008091940184FB222720F991E0922790FB29
:100B900084F906C080919401982F909590FB80F97C
:100BA000809394010BC08091950183FB222720F94B
:100BB00091E0922790FB83F98093950160919401D5
:100BC0007091950184E090E00E94F5210E945720E9
:100BD0004BC00730110508F01ACFF801E858FF4F55
:100BE0000C94B02206E221EE41EE6AE17CE723C0DC
:100BF00007E225EE45EE6BE17CE71DC006E221EE43
:100C000040EE68E17CE717C007E225EE44EE69E1BB
:100C10007CE711C006E221EE42EE6CE17CE70BC0FE
:100C200007E225EE46EE6DE17CE705C008E221E033
:100C300045EE6EE17CE7C7010E940D1715C0C63175
:100C4000FCE7DF0791F5809149028A7A91E009F487
:100C500090E090938E018111E9C269E285EC91E008
:100C60000E9481160E94EA1280912602877009F480
:100C700068C3F7018581882309F463C380919501D6
:100C800082FF5FC382E00E943F135BC3C6312CE743
:100C9000D20709F44AC3809149028272FE01E052F0
:100CA000F847E531F10508F4C3C2F70185818823CF
:100CB00009F461C0C330FCE7DF0709F449C048F418
:100CC000C1158CE7D807A9F0C130DC4709F446C04C
:100CD00052C0CB35ECE7DE0709F44AC0CC35FCE75F
:100CE000DF0709F43DC0CA35DC4709F044C081E0A4
:100CF00040C00E9457208FEF94E3ECE08150904079
:100D0000E040E1F700C0000081E08093E00080E275
:100D10008093D8001092C9008FE19EE40197F1F70B
:100D200000C0000087E090EBDC018093D402909338
:100D3000D502A093D602B093D7029CE088E10FB60B
:100D4000F894A895809360000FBE90936000FFCF49
:100D50006FEF7FEF80E090E00E94F5210E94370363
:100D60008091950182FB882780F991E0892701C055
:100D700080E00E945613F7018581C081D1818823CC
:100D800049F0CE010E94601F182F682FCE010E94EB
:100D9000D41F04C0CE010E94A11F182FBE01812FB5
:100DA0000E941B110E943411D82FC92FC82EF701A1
:100DB0001581068102950F70809126028770E9F0F7
:100DC0001123D9F0892F807F803451F080E28D0F7C
:100DD000883098F0011104C0892F807E803269F03C
:100DE0008091950182FF09C082E00E943F138091AB
:100DF00026028770DD24D3948111D12CBC2EB294AD
:100E00008FE0B8228B2D90E08C30910508F0E6C180
:100E1000FC01E158FF4F0C94B0228C2F807FCF70E3
:100E2000882311F0C295C07F1123B9F0CC2309F4B7
:100E3000C3C180E28D0F883010F0C11006C09091C0
:100E40004902C92BC093490205C090914802C92BA1
:100E5000C09348020E94EA12AFC18D2F0E949D20CC
:100E6000CC2309F4BBC1D05ED83088F1CC2079F115
:100E7000C09590914802C923C09348022BC08C2F83
:100E8000807FCF70803211F0C295C07F8D2FCC2033
:100E900029F0F1E0CF1609F44CC055C080919501BE
:100EA00082FD1BC0112369F0CC2339F090914902D7
:100EB000C92BC09349020E94EA1280E00E94C92017
:100EC0008DC180E00E949D20CC2309F487C18C2F26
:100ED0000E94E3120E94EA1281C1112381F00023D3
:100EE000B1F1013009F07AC1909147028C2F89232A
:100EF000C81709F473C1C92BC09347026FC1011110
:100F00006DC18C2F0E948C20809147029C2F9823CA
:100F100029F09C2F909589238093470280918F011F
:100F20009C2F982309F45AC1C0958C2380938F017C
:100F300055C1112321F0063008F050C108C005301A
:100F400008F04CC10AC0112331F0011135C18C2FBA
:100F50000E94932043C1011133C18C2F0E948C2029
:100F60003DC18C2F86958695837019F0813061F094
:100F700035C1112321F08D2F9C2F937002C080E08A
:100F800090E00E94DB1630C1112321F08D2F9C2FA1
:100F9000937002C080E090E00E94B61625C18C2FAD
:100FA000837009F041C011111DC12D2F2295269586
:100FB0002770220F220F8D2F8F7090E0022E02C01B
:100FC000880F991F0A94E2F7D4FF0BC04FE050E05E
:100FD00002C0440F551F2A95E2F79A0120953095DB
:100FE00002C020E030E0C695C695C370C23099F0CB
:100FF00068F440914A0250914B02C13029F0822B93
:10100000932B8423952304C0842B952B822B932B25
:101010000E942F20E7C0822B932B20914A0230910F
:101020004B0282279327F4CF112319F08C2F817064
:1010300001C08695882309F4D5C02D2F22952695C9
:101040002770220F220F8D2F8F7090E0022E02C08A
:10105000880F991F0A94E2F7D4FF0BC04FE050E0CD
:1010600002C0440F551F2A95E2F79A01209530954A
:1010700002C020E030E0C695C695C370C23079F05A
:10108000B8F44091BC025091BD02C13029F0822BCE
:10109000932B842395230EC0842B952B09C0822B80
:1010A000932B2091BC023091BD028227932702C06E
:1010B000822B932B0E94082095C0CF70112339F00A
:1010C0008C2F0E941F208D2F0E9493208BC08D2F6C
:1010D0000E948C208C2F0E940D2084C08D2FE2EF67
:1010E000CE1689F1EC1538F0F0EFCF1659F021EF5C
:1010F000C21621F15DC093EFC91661F1E4EFCE167F
:10110000C9F056C0112391F0053008F067C0CF71C7
:1011100081E090E002C0880F991FCA95E2F7209104
:10112000BC023091BD028227932721C0063008F00F
:1011300055C0EDCF8091950182FD1CC0112329F08F
:101140008C2F8F7129C01123D9F38C2F8F710E949E
:101150000D2044C0112349F0CF7181E090E002C01E
:10116000880F991FCA95E2F702C080E090E00E94C4
:10117000082034C0112399F0CF718C2F0E941F20BA
:101180008091950182FF07C0F8E0CF9FC001112434
:101190008360809326028C2F0E941F201FC081E055
:1011A0000E943F130230D0F082E00E943F1316C02D
:1011B000112321F0002321F28D2F80CE002329F26C
:1011C000893349F42FEF87EE93E02150804090401F
:1011D000E1F700C000008D2F0E949D2088EF8B0D4D
:1011E000843010F40E940017DD20A9F080912602BF
:1011F00080FD11C0F70115828695869586950E941F
:101200001F20C7010E9422048091260286958695A0
:1012100086950E940D2020E0F70140815181628176
:101220007381848195810E9412038BC065E316CD82
:10123000E557FF4F0C94B0228091A70280FF19C0A0
:10124000282F2E7F2093A7023091A8024091A90257
:101250005091AA026091AB027091AC028091AD02F4
:101260009091AE020E94261D109252020E94EC172D
:10127000FBCC81608093A70261E086954EC043E37A
:101280005FE16DE37FE12CC04DE35FE163E37FE16C
:1012900027C045ED5EE16FED7EE122C04FED5EE1DE
:1012A00065ED7EE11DC04BEB5EE168EC7EE118C0B0
:1012B00048EC5EE16BEB7EE113C041EA5EE16EEA71
:1012C0007EE10EC04EEA5EE161EA7EE109C04CE4D7
:1012D0005DE166E67DE104C046E65DE16CE47DE14A
:1012E0000E94E517C1CC61E081E017C065E082E0B3
:1012F00019C068E086E016C06EE089E013C064E1C2
:101300008FE010C067E185E10DC061E088E105C0B4
:1013100062E289E107C061E083E20E94E91EA4CC99
:101320006AE285E20E94D1179FCC80918E018111E3
:1013300006C069E285EC91E00E94591693CC65E302
:10134000F9CFCDB7DEB7E9E00C94EA222091E400B2
:101350003091E50095E64091EC00842F817040FFCC
:1013600023C08091E80080FD1DC08091BB018823CF
:1013700099F0853099F08091EB0085FD11C0409186
:10138000E4005091E5002417350729F3915011F03E
:101390009A01E1CF84E0089582E0089583E0089502
:1013A00081E0089580E008954091E80042FFDDCF9C
:1013B00008958091BD0187FF11C08091E80082FDF2
:1013C00005C08091BB018111F8CF11C08091E80068
:1013D0008B770BC08091BB01882349F08091E80096
:1013E00080FFF8CF8091E8008E778093E800089521
:1013F000982F973068F59093E900981739F070911D
:10140000EC002091ED005091F00003C0242F762FC6
:1014100050E021FD02C09F5FECCF3091EB003E7F9A
:101420003093EB003091ED003D7F3093ED00309133
:10143000EB0031603093EB007093EC002093ED00F3
:101440005093F0002091EE0027FDE5CF80E0089555
:101450008F708093E90081E008952091C30130915D
:10146000C4012617370748F06115710539F420913A
:10147000E8002E772093E80001C0B901FC0120E0CC
:101480006115710579F18091BB018823F1F18530F7
:10149000F1F18091E80083FD3CC08091E80082FD7D
:1014A0002EC08091E80080FFEBCF2091F300809167
:1014B000F20090E0922B6115710551F08830910592
:1014C00038F421912093F100615071090196F3CF16
:1014D00021E0089709F020E08091E8008E77809362
:1014E000E800CECF2111CFCF0AC08091BB01882365
:1014F00061F0853061F08091E80083FD0AC0809141
:10150000E80082FFF2CF80E0089582E0089583E052
:10151000089581E0089508958091980108950F93AA
:101520001F93CF93DF938B01EA019091BB0194301D
:1015300079F58F708093E9008FEF9091E8008150EA
:1015400095FD06C095ED9A95F1F700008111F5CF54
:101550008091E80085FF1CC00E94A609882361F0E5
:101560008091E8008E778093E80012C0F8018191A5
:101570008F018093F1002197209791F38091E800EB
:1015800085FDF4CF8091E8008E778093E800E4CF6A
:10159000DF91CF911F910F91089543E050E0BC017E
:1015A00082E00E948F0A0895CF93DF93EC0180912F
:1015B0000401811105C048E050E0BE0181E00BC08C
:1015C0008091940187FF03C040E282E002C048E0BE
:1015D00081E050E0BE010E948F0A80E2FE01A9E98D
:1015E000B1E001900D928A95E1F7DF91CF910895D6
:1015F000AAE2B0E0EEEFFAE00C94D422EDEBF1E0D9
:1016000085EC91E02091F10021938E179F07D1F78F
:101610008091BE01833009F461C030F4813071F0F3
:10162000823009F49BC0B2C08A3009F487C08B3085
:1016300009F46CC0893009F0A9C020C08091BD01B7
:10164000813A09F0A3C08091E800877F8093E80089
:101650008091C1019091C201892B21F460E289E956
:1016600091E003C060E080E090E070E00E942D0A0D
:101670008091E8008B778093E80088C08091BD015D
:10168000813209F083C08091C1019091C20102971B
:1016900008F07CC08091E800877F8093E80080910B
:1016A000E80082FD05C08091BB018111F8CF6EC0BA
:1016B0002091F3008091F20090E0922B029731F498
:1016C0008091F100813011F0863021F48091F10099
:1016D000809398018091E8008B7754C08091BD0180
:1016E000813A09F053C08091C1019091C201892BC8
:1016F00009F04CC08091E800877F8093E8008091DA
:10170000E80080FFFCCF8091040137C08091BD01CB
:101710008132E1F58091C1019091C201892BB1F52F
:101720008091E800877F8093E8000E94D90980912A
:10173000BF01809304010E94572028C08091BD0101
:10174000813221F58091E800877F8093E8000E9434
:10175000D9098091C0018093970118C08091BD0183
:10176000813AA1F48091E800877F8093E80080911E
:10177000E80080FFFCCF809197018093F100809179
:10178000E8008E778093E8000E94D9098091E800F4
:1017900083FFCEC18091BD019091BE01492F50E0E1
:1017A0004A30510508F0C4C1FA01E056FF4F0C94CD
:1017B000B022803821F0823809F0BAC108C0809187
:1017C000B9019091BA01992389F082600FC080918C
:1017D000C1018F70873008F0ABC18093E900809120
:1017E000EB0085FB882780F91092E9009091E800D2
:1017F000977F9093E8008093F1001092F10065C10B
:10180000282F2D7F09F094C1882319F0823061F0D0
:101810008FC18091BF01813009F08AC1933009F0F6
:1018200080E08093BA012EC08091BF0181112AC04F
:101830008091C1018F702FEF280F263008F078C1FA
:101840008093E9002091EB0020FF1CC0933021F42D
:101850008091EB00806214C09091EB0090619093B6
:10186000EB0021E030E0A90102C0440F551F8A952A
:10187000E2F74093EA001092EA008091EB00886062
:101880008093EB001092E9008091E800877F20C1EF
:1018900081114EC11091BF011F778091E3008078C4
:1018A000812B8093E3008091E800877F8093E8009C
:1018B0000E94D9098091E80080FFFCCF8091E3006D
:1018C00080688093E300111102C082E001C083E0D0
:1018D0008093BB012DC18058823008F029C18091CE
:1018E000BF019091C0018C3D53E0950779F583E0ED
:1018F0008A838AE289834FB7F894DE01139620E049
:101900003EE051E2E32FF0E050935700E49120FFD6
:1019100003C0E295EF703F5FEF708E2F90E0EA30EA
:1019200010F0C79601C0C0968D939D932F5F243110
:1019300049F74FBF8091E800877F8093E8006AE213
:1019400070E0CE0101960E942D0AAEC04091C10107
:101950005091C201292F332723303105A9F068F4B3
:101960002130310509F4F3C02230310509F0E0C01F
:101970008BE390E0E5E0F2E044C02132310521F153
:101980002232310571F1D4C0992781309105A1F03F
:1019900058F0029709F0CCC0E2E5F2E0E4918E2F16
:1019A00090E0E2E5F2E02AC0E4E7F2E0E4918E2F75
:1019B00090E0E4E7F2E022C0E6E6F2E0E4918E2F68
:1019C00090E0E6E6F2E01AC04115510509F4C4C002
:1019D0004130510509F0ACC089E090E0E0E3F2E06D
:1019E00010C04115510509F4BCC04130510509F042
:1019F0009FC08DE690E0E4E5F1E003C0009709F4B4
:101A000097C02091E800277F2093E8002091C30130
:101A10003091C4018217930708F49C0140E021151E
:101A2000310589F18091BB01882309F43DC08530DF
:101A3000D9F18091E80083FD37C08091E80082FDF4
:101A40002FC08091E80080FFEACF4091F3008091A1
:101A5000F20090E0942B2115310559F08830910562
:101A600040F444914093F1003196215031090196A0
:101A7000F2CF41E0089709F040E08091E8008E77CE
:101A80008093E800CCCF4111CDCF0AC08091BB013B
:101A9000882351F0853041F08091E80083FD04C037
:101AA0008091E80082FFF2CF8091E8008B778093ED
:101AB000E8003EC08038E1F58091E800877F8093A0
:101AC000E8008091BC018093F1008091E8008E775E
:101AD0008093E8000E94D9092BC0811129C0809110
:101AE000BF019091C0019927029714F58091E800F9
:101AF000877F8093E8001091BF011093BC010E9482
:101B0000D909111106C08091E30087FD02C081E070
:101B100001C084E08093BB0142E061EC81E00E945F
:101B2000F80942E261EC82E00E94F8098091BB0171
:101B30008091E80083FF1AC08091E800877F80933E
:101B4000E8008091EB0080628093EB000FC082E19F
:101B500090E0E0E4F2E055CF89E090E0E7E1F2E0E8
:101B600050CF84E490E0E1ECF1E04BCFAA96E3E0C3
:101B70000C94F0221F920F920FB60F9211242F9304
:101B80003F934F935F936F937F938F939F93AF9305
:101B9000BF93CF93DF93EF93FF93C091E900CF7092
:101BA0008091EC00D82FD17080FDD0E81092E90030
:101BB0008091F000877F8093F00078940E94F80A6B
:101BC0001092E9008091F00088608093F000CD2BA6
:101BD000CF70C093E900FF91EF91DF91CF91BF915A
:101BE000AF919F918F917F916F915F914F913F91B5
:101BF0002F910F900FBE0F901F901895E8EDF0E019
:101C000080818E7F80831092E2001092DA00109221
:101C1000E100A0EEB0E08C9181608C9380818F77A1
:101C2000808319BCA7EDB0E08C918E7F8C9380816E
:101C30008F7E8083109296010895A0E0B0E0E3E2E9
:101C4000FEE00C94CF22C8EDD0E088818F7E88839F
:101C5000E7EDF0E080818160808384E082BF81E0F5
:101C60008093960188818E7F888302EE10E0F801D0
:101C700010821092DA0081EEC82ED12CF60110826B
:101C800088818F77888388818068888388818F7D29
:101C9000888319BC1092BB011092BC011092BA014A
:101CA0001092B90190EEE92EF12CF70180818B7F23
:101CB000808388818160888342E060E080E00E94C8
:101CC000F809F60180818E7F8083F8018081816030
:101CD0008083808188608083F70180818E7F80830C
:101CE000888180618883CDB7DEB7E8E00C94EB2271
:101CF0001F920F920FB60F9211242F933F934F9381
:101D00005F936F937F938F939F93AF93BF93EF9363
:101D1000FF938091E10082FF09C08091E20082FF81
:101D200005C08091E1008B7F8093E1008091DA0013
:101D300080FF2AC08091D80080FF26C08091DA0001
:101D40008E7F8093DA008091D90080FF18C080E1F7
:101D500089BD82E189BD09B400FEFDCF81E0809399
:101D6000BB018091960181110FC00E94FE0D0E945F
:101D70001D0E8091E20084608093E20005C019BCD2
:101D80001092BB01109296018091E10080FF17C074
:101D90008091E20080FF13C08091E2008E7F8093EB
:101DA000E2008091E20080618093E2008091D8009F
:101DB00080628093D80019BC85E08093BB0180913C
:101DC000E10084FF30C08091E20084FF2CC080E1FC
:101DD00089BD82E189BD09B400FEFDCF8091D800A4
:101DE0008F7D8093D8008091E1008F7E8093E10009
:101DF0008091E2008F7E8093E2008091E20081601A
:101E00008093E2008091BC01882311F084E007C038
:101E10008091E30087FD02C081E001C083E08093F0
:101E2000BB018091BB018091E10083FF27C08091BD
:101E3000E20083FF23C08091E100877F8093E1006F
:101E400082E08093BB011092BC018091E1008E7F03
:101E50008093E1008091E2008E7F8093E200809188
:101E6000E20080618093E20042E060E080E00E9456
:101E7000F8098091F00088608093F000FF91EF9165
:101E8000BF91AF919F918F917F916F915F914F9192
:101E90003F912F910F900FBE0F901F90189578943F
:101EA0001F920F920FB60F9211248F939F93AF93AF
:101EB000BF938091900190919101A0919201B09176
:101EC00093010196A11DB11D809390019093910102
:101ED000A0939201B0939301BF91AF919F918F9185
:101EE0000F900FBE0F901F9018952FB7F894809108
:101EF000900190919101A0919201B09193012FBF17
:101F0000089580E008959091940192FF10C041E0FF
:101F1000282F2471243009F040E031E0282F287167
:101F2000283009F030E0431711F02CE0822793FFAE
:101F300010C041E0282F2471243109F040E031E045
:101F4000282F2871283109F030E0431711F02CE0D8
:101F500082273091950130FF10C051E0282F217168
:101F6000213009F050E041E0282F2871283009F095
:101F700040E0541711F029E0822731FF10C041E002
:101F8000282F2171213109F040E031E0282F2871FC
:101F9000283109F030E0431711F029E0822794FD41
:101FA000877E08958238910569F1B0F481339105F7
:101FB00009F475C048F48932910509F467C08A3282
:101FC000910509F471C008958533910509F459C04C
:101FD00089339105B9F00895833E910589F138F46C
:101FE000803E9105D1F0823E910529F10895863E0B
:101FF0009105C9F1873E9105D9F1843E910509F01B
:102000006CC027C02091940120FD57C021FD55C010
:102010002091950123FD5BC008958091940180FD7E
:1020200048C08091950180FF48C08091940184FD53
:1020300046C083EE51C08091940182FF3CC0F5CF31
:102040008091940182FD37C08091950180FD35C05B
:10205000ECCF8091950181FF36C08091940184FD81
:102060002EC087EE39C08091940183FF2AC0F5CF3E
:102070008091940183FD25C08091950181FD23C04D
:10208000ECCF8091940185FD22C01FC08091940106
:1020900085FD1BC08091950183FF19C00AC0809106
:1020A000940186FD16C017C08091940186FD13C06F
:1020B00010C089E311C082EE0FC080EE0DC080E039
:1020C0000BC086EE09C084EE07C085E305C089E237
:1020D00003C08AE201C081E390E0089520912502C7
:1020E0009091EC0157E02917A9F030E0529FF001E0
:1020F000539FF00D1124E351FE4F7181761306C0FA
:102100007081781303C07581741306C02F5F3F4F31
:102110002770E9CF80E0089581E00895EF92FF9263
:102120001F93CF93DF9300D0CDB7DEB71A82198209
:10213000CE0101967C01E4E5F1E0BC0140E050E015
:1021400010E031E0CF01840F951FDC012C912F3F6F
:1021500091F0822F82958F7090E0DC0190968C91A7
:1021600090E02F7002C0959587952A95E2F780FD43
:1021700002C0832F02C080E090E0182B330F4F5F26
:102180005F4F45305105F1F6D7011D937D0135961E
:10219000B1E0EE35FB0791F642E050E08AEB92E0C9
:1021A0000E944023892B79F089819A819093BB0208
:1021B0008093BA0281E0809350020E94750F909341
:1021C0004F0280934E0280915002811102C080E044
:1021D0002AC020914E0230914F024FB7F89480915F
:1021E000900190919101A0919201B09193014FBF04
:1021F000821B930B059758F342E050E06AEB72E0C4
:102200008FEB92E00E944023892B51F08091BA021B
:102210009091BB029093C0028093BF0281E001C005
:1022200080E0109250020F900F90DF91CF911F919C
:10223000FF90EF900895723090F4653080F4811132
:1022400010C0E62FF0E085E0789FE00DF11D11242D
:10225000EE0FFF1FE858FD4F85919491089580E09F
:1022600001C081E090E008951F93CF93DF930E9417
:10227000D20FEC01C11580E5D807E8F5C11590E44F
:10228000D90708F0A8C0C03ED10530F5CD3CD10536
:1022900008F094C0C83AD10578F4C53AD10508F0E1
:1022A00083C0C130D10509F47CC008F4F2C0C43049
:1022B000D10508F0F1C0EDC0C33CD10508F0E9C07C
:1022C000C85AD0E0CC0FDD1FC25EDE4F0990D88126
:1022D000C02DCE019464E1C0C11580E2D80708F09A
:1022E000CBC0C11591E0D90708F06BC0C83ED1053D
:1022F00008F4D2C0CEC0C03682E5D80728F5C03475
:1023000092E5D90708F079C0C03282E5D80708F015
:102310006CC0C11592E5D90708F481C04C2F4695D1
:10232000469580E2489FA0011124C37021E030E06F
:10233000C90102C0880F991FCA95E2F7EA01C82BAC
:10234000D92BCE019D68A9C0C03A82E5D807B8F460
:102350008C2F8F71C03892E5D90708F07BC0869525
:10236000869590E2899F90011124C37081E090E0EE
:1023700002C0880F991FCA95E2F79A6868C0C03CEE
:1023800082E5D80708F46DC0C03E92E5D90708F091
:1023900080C0CF71DD27DC2FCC27CE01806F906A03
:1023A0007CC081E090E079C0C55AD0E0C55EDE4FC8
:1023B0008881C82FD0E0CE0190646FC0CE019065B7
:1023C0006CC08D2F0E94830F182FCE0199270E9479
:1023D000D20F1F715CC0CE0199270E94D20FCC276B
:1023E000DF70D06A8C2B9D2B58C0CF71D0E0DC2FD2
:1023F000CC27CE01816F906A50C08C2F8F7186954B
:10240000869590E2899F90011124C37081E090E04D
:1024100002C0880F991FCA95E2F79C6818C08C2FDC
:102420008F710E94830F95E0D695C7959A95E1F735
:10243000CF70D0E0DC2FCC27282F30E084FF05C000
:1024400084E0220F331F8A95E1F7D069CE01822BF9
:10245000932B23C090E0D82FCC27CE01846F906AB5
:102460001CC08C2F8F710E94830F8F7190E0D82F2A
:10247000CC27CE01906211C08D2F8F710E94830FE7
:10248000182FCE0199270E94D20F1F719062912BB5
:1024900004C080E090E001C0CE01DF91CF911F9198
:1024A0000895A6E0B0E0E7E5F2E10C94D3220E94A3
:1024B000750F8C0180914C0290914D0208171907FD
:1024C00081F019821A820E94750F682F49815A8102
:1024D000792F80E090E00E94920310934D020093C8
:1024E0004C022696E4E00C94EF22A8E0B0E0EBE783
:1024F000F2E10C94D52266EE7EEF80E090E00E943F
:10250000F52160E082E090E00E94D72160E083E066
:1025100090E00E94D72110924B0210924A0260E094
:1025200074E184E090E00E94F52160E086E090E0B4
:102530000E94D7216FEF87E090E00E94D72140E012
:1025400050E0BA0188E090E00E94E92160E084E276
:1025500090E00E94D72160E087E190E00E94D721BF
:1025600060E08CE090E00E94D72160E08DE090E098
:102570000E94D72119821A821B821C821D821E8210
:102580001F82188648E050E068E170E0CE010196B5
:102590000E94C72140E050E0BA0180E290E00E9432
:1025A000E92140E050E0BA018FE090E00E94E9218B
:1025B00040E050E0BA0183E190E00E94E9212896D2
:1025C000E2E00C94F1228095909149028923809356
:1025D000490208959091490280914802982B909366
:1025E000C501809147028823D9F0892B8093C501CA
:1025F00080910401882331F08091940187FF02C00B
:102600008EE101C086E0E7ECF1E090E0815028F037
:1026100021912223D9F39F5FF9CF911110924702A4
:1026200040E250E067E272E085EC91E00E944023D6
:10263000892B21F180E2E5ECF1E0A7E2B2E0019024
:102640000D928A95E1F7E091B502F091B6023097CC
:10265000A9F080910401882359F08091940187FFAB
:1026600007C08091C5018093C60186E08093C501B3
:102670000280F381E02D85EC91E009950895909119
:1026800026028095892380932602282F277069F4DB
:10269000981759F09091950192FF07C086958695FD
:1026A00086950E940D201092260208959091950122
:1026B00092FB222720F9281779F080FB92F990935A
:1026C0009501609194017091950184E090E00E94E1
:1026D000F52182E00E943F13089580912502909198
:1026E000EC01891719F08F5F8770FBCF0895CF93A6
:1026F000DF938091EB0182958F7009F04EC080913D
:10270000EA01882309F449C0809125024091EC0137
:102710005091E6016091E501C091E701D091E80197
:1027200077E08417D1F190E0789FF001799FF00D68
:102730001124DF01A351BE4F14962C91149722232C
:1027400049F111962C911197251324C02C91261331
:1027500021C015962C91159721111CC012962D9110
:102760003C9113972C1B3D0B283C310598F480912C
:10277000EB018F7080618093EB01ED50FE4F808103
:102780008F708061808385EE91E00E9422040E9418
:102790006D1303C001968770C4CFDF91CF91089568
:1027A000A4E1B0E0E6EDF3E10C94CB228C0186E0ED
:1027B000F801DE011F9601900D928A95E1F7F8016C
:1027C0008481E58095EE892E91E0992E9091E90122
:1027D000911120C0882309F463C1EE2009F442C09E
:1027E000C8010E943420F82E8823E1F187E0F80127
:1027F000D40101900D928A95E1F78091E901813031
:1028000031F48091E5019091E6010E94941F0E94AD
:10281000771348C1F801D080C180A280B380F090C6
:10282000EA012091E7013091E801FF2009F4E7C0B7
:10283000A501421B530B483C510508F09DC088235D
:1028400009F430C18091EB01282F207F9091E6019F
:10285000222361F09C1509F460C0C8010E94342055
:10286000811163C0C8010E9422041AC19C1113C0C7
:102870009091E5019D110FC0E1100DC08F70806136
:102880008093EB0185EE91E00E9422048091EB01A0
:10289000F801868303C1E1103AC040E06C2D8D2D14
:1028A0000E946E1040E06C2D8D2D0E946E10E82E5F
:1028B0008111F4C0DF86C88A8F8598890E94941F91
:1028C000292F22952F70243020F49F70223028F079
:1028D00009C02A50223080F014C0992349F0811198
:1028E00007C013C0992321F0F8019681907F69F009
:1028F000805E883030F409C0803F38F0815F8330DB
:1029000020F0C8010E942204EF2CFE2CCBC0809145
:10291000EB0181608093EB01C1C09091E5019D11B5
:102920009CCFE1109ACFF80198C0EE2009F49ACF1D
:102930002091EB01822F82958F7090E002978CF0AE
:102940008091E5019091E60199878887BB86AA86E8
:102950008091E9018C871D862E87CE0108960E9402
:10296000220487E0F801A5EEB1E001900D928A956E
:10297000E1F70E94771394C09091EB01292F207FFB
:1029800051F485EE91E00E94220487E0F401119257
:102990008A95E9F783C0882309F484C08091E60111
:1029A0008C110CC08091E5018D1108C0E11006C0AA
:1029B000F8019683C8010E9422046AC0C8010E94DF
:1029C0003420882309F44ECFEE2009F44BCF209118
:1029D000EB01822F82958F7090E0029714F2809124
:1029E000E5019091E6019A838983BC82AB82809154
:1029F000E9018D831E822F83CE010196B0CFA21AEA
:102A0000B30AF8ECAF16B10408F042C0882309F409
:102A100047C0FE2CEE2009F425CF8091E6018C11F1
:102A200029C08091E5018D1125C09091EB0190FDA9
:102A300018C0892F82958F70282F30E0211531051D
:102A400081F0F80196832F30310541F08F5F982F88
:102A50009295907F86818F70892B8683C8010E9412
:102A6000220487E0F801A5EEB1E001900D928A956D
:102A7000E1F718C0C8010E943420811172CF809103
:102A8000EB0181608093EB01C8010E9422040AC01F
:102A900087E0F40111928A95E9F704C0F12C02C095
:102AA000FF24F3948F2D6496ECE00C94E7220895B4
:102AB000A0E0B0E0EEE5F5E10C94D022E82FF0E0E4
:102AC000E454FC4FD490282F26952695269530E087
:102AD000F901E455FC4F0491877010E0082E02C004
:102AE000159507950A94E2F701701127F901E4564C
:102AF000FC4FE490F12C082E02C0F594E7940A9460
:102B0000E2F791E0E922FF24F901E457FC4FC49178
:102B1000D0E002C0D595C7958A95E2F7C170DD2750
:102B20000115110519F081EE0E94C920E114F1048C
:102B300019F086EE0E94C9208D2D0E943821E114E3
:102B4000F10419F086EE0E949D200115110519F07F
:102B500081EE0E949D20CD2B19F08CE20E9438213D
:102B6000CDB7DEB7E7E00C94EC229091AF02923043
:102B700071F48A3040F490E009966AE070E00E94B7
:102B80009C22875A01C086500E9438210895982FB0
:102B90009F709A50963010F0805D01C0895A0E9453
:102BA00058150895A3E0B0E0E8EDF5E10C94D322C8
:102BB0008C018091560281110AC09E012F5F3F4F08
:102BC00048E76FEF0E94941D8A8180935602F801B6
:102BD0008481813051F028F0823061F440915602B6
:102BE0000AC08091560240E007C06091560240E062
:102BF00080E003C040E080E060E00E94FB1CF80140
:102C0000848190E0019663E070E00E949C228483BE
:102C10002396E4E00C94EF22CF93DF93EC01E7EAF4
:102C2000F2E0438162818C810E94481F8C818F5F1A
:102C30008C83DF91CF910895CF93DF93EC01EC81EA
:102C4000F0E0E457FD4F4491E7EAF2E062818181D0
:102C50000E94481F8C818F5F8C83DF91CF910895F4
:102C60001F920F920FB60F9211248F939F93AF93E1
:102C7000BF938091B902811113C08091900190910E
:102C80009101A0919201B09193014196A11DB11DB6
:102C90008093900190939101A0939201B09393013E
:102CA000BF91AF919F918F910F900FBE0F901F908A
:102CB0001895209104012223C9F02091940127FF47
:102CC00015C0262F2695269526952E31C8F4FC0191
:102CD000E20FF11D677081E090E001C0880F6A95F6
:102CE000EAF780959281892382830895FC010696F4
:102CF0002281621301C012823196E817F907C1F7E9
:102D00000895209104012223C1F02091940127FF0E
:102D100014C0262F2695269526952E3130F5FC01D8
:102D2000E20FF11D677081E090E001C0880F6A95A5
:102D3000EAF79281892B82830895FC0132962FEF66
:102D400030E04191641789F02F3F19F4411101C01F
:102D5000232F3F5F3630A9F72F3F39F0FC01E20FF8
:102D6000F11D27FDFA95628308950895A3E0B0E070
:102D7000ECEBF6E10C94D5222091B7023091B80229
:102D800028173907A1F09093B8028093B702E09119
:102D9000B502F091B602309751F024E029839B836D
:102DA0008A830680F781E02DCE010196099523964E
:102DB000E2E00C94F122A3E0B0E0E1EEF6E10C9445
:102DC000D5222091B3023091B40228173907A1F01F
:102DD0009093B4028093B302E091B502F091B602F1
:102DE000309751F023E029839B838A830680F78103
:102DF000E02DCE01019609952396E2E00C94F12294
:102E0000E091B502F091B602309729F00190F0817F
:102E1000E02D0995089580E008950F931F93CF93B7
:102E2000DF93C42F122FFC0185818823B1F04093DA
:102E3000B2020E94750F9093B1028093B00280E2BB
:102E40008C0F883008F059C0C77081E001C0880F2E
:102E5000CA95EAF70E94932050C08091B2024813AD
:102E60003CC02091B0023091B1024FB7F8948091EC
:102E7000900190919101A0919201B09193014FBF67
:102E8000821B930B883C910540F5D0E2D10FC1170E
:102E9000B9F080E28C0F883040F4C77081E001C047
:102EA000880FCA95EAF70E948C20D83018F581E087
:102EB000912F977001C0880F9A95EAF70E9493208E
:102EC000802F0E943821D830C0F4212F277081E054
:102ED00001C0880F2A95EAF70AC080E28C0F88307B
:102EE00060F4C77081E001C0880FCA95EAF70E94BC
:102EF0008C2003C0802F0E943821DF91CF911F9139
:102F00000F9108958F929F92AF92BF92EF92FF928E
:102F10000F931F93CF93DF934B015C01D091AF02CE
:102F20008CE1E82EF12C07E010E021E0D501C4018E
:102F30000E2C04C0B695A795979587950A94D2F75D
:102F4000C82FCF70222369F0D43031F4CA3020F07A
:102F500080E00E94B51505C0C11103C00430110501
:102F600024F48C2F0E94B51520E00150110984E053
:102F7000E81AF1080F3F8FEF1807C1F6DF91CF91E4
:102F80001F910F91FF90EF90BF90AF909F908F9007
:102F900008958093AF02682F8CE090E00E94D721C3
:102FA00008959091A70290FF04C09695981748F055
:102FB00003C0811106C090E0961718F40E943D1FCF
:102FC000089561E00E94E91E0895882311F0FA0136
:102FD00001C0FB01099508958091A70280FF0AC0F6
:102FE000259A85B18F7D95B190622FB7F894E7E56A
:102FF000F2E00CC0E7E5F2E085E792E01182108292
:10300000128233968E179F07C9F7EACF32E0E53771
:10301000F30789F0319148E095B9000000C037FF0F
:1030200085B9330F000000C000C000C085B900C0E2
:103030004A9591F7EBCF2FBF8FE594E00197F1F719
:1030400000C000000895A0E0B0E0E9E2F8E10C94CF
:10305000CA22FC018280748081E08483ECE8F2E083
:103060009490EBE0F3E0E4910091AA0206950158F8
:1030700010E0000F111F012F1127C5E7D2E027E54F
:10308000C22E22E0D22EAA24AA94B12CE919EE2E47
:10309000F12C22E0281530F08091A80288838091DD
:1030A000A9028983711003C01B821A824AC08B81D6
:1030B0008823F9F081508B832FEF829FC001112468
:1030C0006C8170E00E948822FB01FF27E457FD4FCE
:1030D0008491E82FE9192FEFE29FC0011124B70175
:1030E0000E9488228091AA02689FB00111247A83ED
:1030F00028C00E94A321B5010E949C22801791073D
:1031000004F582E0881588F40E94A321B5010E948D
:103110009C2288830E94A3212091A9022695622FD8
:1031200070E00E949C22280F29831A828091AA02B3
:10313000843120F0893C18F088EC01C084E18C8354
:103140008B8396014A81698188810E94941D25960E
:1031500023E0C20ED11C82E0C73AD80709F099CF0C
:103160000E94EC17CDB7DEB7EDE00C94E622EF92AB
:10317000FF920F931F93CF93DF938C01C7E5D2E0AB
:10318000E12CF12CF8018481F5E0EF16F1041CF438
:10319000882339F002C0811104C09E014091AA0227
:1031A00002C09E0140E06091A9028091A8020E94A5
:1031B000941D8FEFE81AF80A23969AE0E916F104B5
:1031C00009F70E94EC17F801848190E00196817064
:1031D00099278483CDB7DEB7E6E00C94ED22A0E01A
:1031E000B0E0E5EFF8E10C94CB22EC014C81042F28
:1031F00010E09801D8010E945F229B01AC010E945F
:103200002A226B017C01E0E2F0E0E01BF10BA5E576
:10321000B0E09B01AC010E942A224B015C019F019E
:10322000DF010E94B6229B01AC010E9435229B0166
:10323000AC012C0D3D1D4E1D5F1DC501B4010E944A
:103240003D22822FF22E99E2921728F093E0299FD7
:10325000900111240DC025E530E0281B3109C9017A
:10326000880F991F280F391F37FF02C02F5F3F4F6C
:1032700035952795122F109597E5C92E92E0D92EF6
:1032800000E085E5E82EEF1801FD02C08E2D01C09B
:103290008F2D9601412F6091A9020E94941D0F5F0E
:1032A00083E0C80ED11C0A3079F70E94EC178C819C
:1032B000811102C091E003C0803219F49FEF909316
:1032C000070190910701890F8C83CDB7DEB7ECE041
:1032D0000C94E7220F931F93CF93DF93C7E5D2E0BF
:1032E000FE01118210821282339682E0E537F807E0
:1032F000C1F700E010E080915502082E000C990BF8
:103300000817190794F080910601082E000C990BFC
:103310008017910754F09E014091AA026091A90282
:103320008091A8020E94941D03C0198218821A82FB
:103330000F5F1F4F23960A301105E9F60E94EC1724
:103340008091050190915502980F9093550220911C
:103350000601280F20930601121614F499301CF070
:10336000819580930501DF91CF911F910F91089571
:10337000A0E0B0E0EEEBF9E10C94CE22FC018281FA
:1033800080FF03C0DD24DA9402C0DD24D39407E576
:1033900012E0C0E0D0E02AE0B22EF80111821082E3
:1033A000128294E0E92EF12CC12C809154028C0DF4
:1033B0008B302CF06B2D0E947A22892F02C087FD62
:1033C000865F082E000C990BC817D90791F48091DD
:1033D000AA028E9DA0018F9D500D112455954795F1
:1033E0005595479598016091A9028091A8020E9485
:1033F000941DCD0CF1E0EF1AF108B9F621960D5F9E
:103400001F4FCA30D10549F60E94EC178091540233
:1034100091E0D91206C0811102C089E007C0815035
:1034200005C090E00196BE010E949C228093540248
:10343000CDB7DEB7E9E00C94EA22EF92FF921F933A
:10344000CF93DF93EC0187E5E82E82E0F82E10E0C1
:103450008C8197014091AA026091A902810F0E947C
:10346000941D175E83E0E80EF11C1A3F89F70E9455
:10347000EC179A818C8190FF02C08F5F01C0815050
:103480008C83DF91CF911F91FF90EF900895A6E07C
:10349000B0E0EDE4FAE10C94C72285B7806885BFFF
:1034A00085B7806885BF84B7877F84BF0FB6F894DF
:1034B000A895809160008861809360001092600000
:1034C0000FBE90E080E80FB6F8948093610090936F
:1034D00061000FBE81E89FE090938B0180938A0189
:1034E0000E94FE0D0E941D0E8091E2008460809378
:1034F000E20078948091BB018823A1F01091E9004B
:103500001F709091EC00892F817090FD80E8182B3E
:103510001092E9008091E80083FD0E94F80A1F7074
:103520001093E90082E084BD93E095BD9AEF97BDCA
:1035300080936E0044E551E0AEE5B1E001E010E0BB
:1035400020E030E0FA01E20FF31F80818F3FA1F00D
:10355000E82FE295EF70F0E061A18F70780102C072
:10356000EE0CFF1C8A95E2F7C7019E2D90959623DD
:1035700091A392A1892B82A32F5F3F4F2530310564
:1035800009F74B5F5F4FA417B507D1F61092C00241
:103590001092BF021092BB021092BA0280E090E03B
:1035A0000E94C121863E9E4F11F00E94751282E05A
:1035B00090E00E94B3218093C10284E090E00E94D9
:1035C000C121909395018093940183E090E00E9443
:1035D000B32190E00E942F208CE090E00E94B32164
:1035E0008093AF028091BE02811176C080E090E0AE
:1035F0000E94C121863E9E4F21F00E9475120E94BA
:10360000801D88E090E00E94BB214B015C0184E2B8
:1036100090E00E94B321282F30E040E050E060E0CD
:1036200070E080E090E000E20E94FC222829392925
:103630004A295B292093A7023093A8024093A9024C
:103640005093AA026093AB027093AC028093AD02D8
:103650009093AE022E7F89F50E94801D88E090E055
:103660000E94BB216B017C0184E290E00E94B321A7
:10367000282F30E040E050E060E070E080E090E033
:103680000E94FC22B22FA32FF42FE52F5B0197019C
:103690008601BC29A12BF22BE32BB093A702A093A8
:1036A000A802F093A902E093AA026093AB02B09241
:1036B000AC028093AD029093AE020E940C1D10925A
:1036C00052028091A70280FF04C060E086950E94AC
:1036D000E91E81E08093BE0288E091E09093B602FB
:1036E0008093B50218E1E12EF12C00E4C02EBB243A
:1036F000B394B0E1DB2E8091BB01853009F03FC06F
:1037000012E18091BB01853009F035C08091BB0189
:10371000843009F11092B9020FB6F894A895E0929E
:1037200060000FBEC092600083B7817F846083BF5A
:1037300083B7816083BF7894889583B78E7F83BF7A
:103740000FB6F894A895809160008861809360001E
:10375000109260000FBE8091BA01882391F20E94FE
:103760008E108091BF02811130C18091C0028823E8
:1037700009F4C7CF2AC10E9457200E9400170E9457
:103780008E109091C2028091BF02981306C0909152
:10379000C0028091C302981741F0AFEB8A2EA2E0DD
:1037A0009A2E02EC12E0A12C03C00E94511239C0E3
:1037B000F40141904F01F8015080542409F1712C1B
:1037C00066246394852D8621A1F07982AA820E94C5
:1037D000750F9C838B83BD8291E0842D862109F433
:1037E00090E09E8349815A816B817C818D810E940A
:1037F00092037394660CF5E07F12E4CFF8014082E7
:10380000A3940F5F1F4FF2E0AF12D2CF8FB7F8949F
:1038100040919001509191016091920170919301BA
:103820008FBF80915202882309F4A5C08091510274
:10383000E091A702E695E81BE093C802823059F4B4
:10384000F0E0E35BFB4FE4910E2F10E0FCE18F2EE4
:10385000F6E19F2E6BC0863059F4F0E0E65BFB4F3B
:10386000E4910E2F10E0ECE08E2EE6E19E2E5EC07D
:10387000893061F4E695F0E0E95BFB4FE4910E2FAF
:1038800010E07DE1872E7AE1972E50C08F3061F4F1
:10389000E695F0E0EC5BFB4FE4910E2F10E068EB57
:1038A000862E69E1962E42C0853159F4F0E0EF5B37
:1038B000FB4FE4910E2F10E05AE6852E59E1952E2C
:1038C00035C08831F9F0833249F4EFE3F4E0059133
:1038D000149142ED842E45E1942E28C08432C9F023
:1038E0008532F1F48E2F63E00E946E22E92FF0E022
:1038F000E45CFB4FE4910E2F10E033E2832E38E1BD
:10390000932E14C008E210E02FEE822E28E1922EB2
:103910000DC004EF11E097EB892E98E1992E06C0B7
:1039200000ED17E087E5882E85E1982E8091C90289
:10393000882361F01092C9020E94750F9093C7020C
:103940008093C6021092CB021092CA020E94750F99
:10395000E091C602F091C7028E1B9F0B8F3F9F47DD
:1039600050F40E0F1F1F1093C7020093C60286EC7F
:1039700092E0F40109958091C402882389F01092A5
:10398000C40280915202811106C08091A70260E0BA
:1039900086950E94E91E8091A70280FF0E94EC1785
:1039A0000E9400179091C502891709F4A4CE809354
:1039B000C5028FB7F89440919001509191016091A8
:1039C0009201709193018FBF94CED9BC19BD09B4F7
:1039D00000FEFDCF8091D8008F7D8093D80080912C
:1039E000E00082608093E0008091E00081FDFCCFE8
:1039F0000E94572086CE9091A70290FF0CC0E7E569
:103A0000F2E0818360834283339692E0E537F907E1
:103A1000C1F70E94EC1708958091A702282F2695E0
:103A200030E02115310519F48170826005C02B3218
:103A3000310524F0817084658093A7028091AA02E9
:103A4000893718F088E78093AA020895A0E0B0E0D3
:103A5000ECE2FDE10C94CB2249015A016B017C019F
:103A60000E940C1D8401A4016A2D7B2D88E090E04A
:103A70000E94E92194014A2D5B2DB601C70100E2A5
:103A80000E941723622F84E290E00E94D721CDB7D5
:103A9000DEB7ECE00C94E7228091AB02882319F0AA
:103AA00081508093AB022091A7023091A8024091EF
:103AB000A9025091AA026091AB027091AC02809170
:103AC000AD029091AE020E94261D08958091AB0236
:103AD000833018F48F5F8093AB022091A70230915E
:103AE000A8024091A9025091AA026091AB02709184
:103AF000AC028091AD029091AE020E94261D089505
:103B0000E7EAF2E023E0208311828FEF828388E7E7
:103B100083831482758130E04FEF58E760E086813F
:103B200097810E94261D0895A0E0B0E0EAE9FDE13A
:103B30000C94CD22E82EF62EE901493708F048E72B
:103B4000E42FF0E0F11006C0EF5AFB4FE4914E2F46
:103B50002E2F71C00F2D10E0EF5AFB4F4491F42F20
:103B6000C42ED12C26E0E29EC00111242FEF30E0BC
:103B7000B9010E9488225BEA5603C001579F900D4D
:103B800011248E0D911D8E0D911D582F550F580F1C
:103B9000D901A01BB10BAC9DC001AD9D900DBC9D8A
:103BA000900D1124E92FF59ED0011124AB2FBB27D6
:103BB0007901EA1AFB0AEC9CD001ED9CB00DFC9C4B
:103BC000B00D11245901A51AB108A09E7001A19E43
:103BD000F00CB09EF00C1124EF2CFF242E193F099D
:103BE0002C9D80012D9D100D3C9D100D1124212F29
:103BF0006230710591F048F461157105E1F06130B2
:103C00007105B9F4242F4B2F16C06430710569F08B
:103C100040F06630710579F00CC0242F492FE12F58
:103C20000AC0492FEF2F2B2F06C0292FE42F412F39
:103C300002C0292FEB2F49832883EA83CDB7DEB753
:103C4000EAE00C94E922A3E0B0E0E9E2FEE10C94A2
:103C5000C822F82E762EE42E622E9091A70290FFB5
:103C60006CC0E92FE695AE2FB0E0A25ABE4F8C9102
:103C7000809351029E7F923061F49E012F5F3F4FEF
:103C80008F2D0E94941D4B8169818A810E94FB1CAB
:103C90003DC0823019F4E090AA0238C0863019F491
:103CA000F090A80233C08930D9F3893179F5E95110
:103CB0008E2F8170582EE695F0E0EF5AFA4FE4917E
:103CC0000E2F10E087E5C82E82E0D82EA12CB12C53
:103CD0009AE0892E912CC501B4010E9488228F2D73
:103CE000511002C0860F01C0861B96014E2D672D14
:103CF0000E94941DA00EB11E83E0C80ED11C85E762
:103D0000C81682E0D80639F70E94EC17F092A80294
:103D10007092A902E092AA02662079F02091A7028F
:103D20006091AB027091AC023F2D472D5E2D8091CA
:103D3000AD029091AE020E94261D2396EFE00C94F6
:103D4000E422E7EAF2E0438121E1421B08F440E08B
:103D500021E0628181810E94231E0895E7EAF2E05A
:103D6000438121E1420F08F44FEF21E0628181811C
:103D70000E94231E0895E7EAF2E0628121E1621BBE
:103D800008F460E021E0438181810E94231E0895B0
:103D9000E7EAF2E0628121E1620F08F46FEF21E0CF
:103DA000438181810E94231E0895E7EAF2E0818128
:103DB00021E0438162818A500E94231E0895E7EA30
:103DC000F2E0818121E043816281865F0E94231EAF
:103DD00008959091A70290FF45C09170811102C093
:103DE000926006C08B3210F0946502C0880F982B49
:103DF0009093A702662391F02091A7023091A80228
:103E00004091A9025091AA026091AB027091AC025C
:103E10008091AD029091AE020E94261D6091A70292
:103E2000669570E04BE050E080E191E00E94332322
:103E3000892B19F01092520209C081E0809352023E
:103E40000E94750F9093C7028093C60281E0809311
:103E5000C90220E04091AA026091A9028091A802C3
:103E60000E94231E08958091A7028695815009F42F
:103E70008AE261E00E94E91E08958091A70286957A
:103E80008F5F8B3208F081E061E00E94E91E0895A7
:103E9000A3E0B0E0EEE4FFE10C94D5229091A702FC
:103EA00090FF0AC09E012F5F3F4F0E94941D4B81DF
:103EB00069818A810E94FB1C2396E2E00C94F12226
:103EC000A0E0B0E0E6E6FFE10C94CE227C01009198
:103ED000BC021091BD0280914A0290914B02082BC6
:103EE000192BCFE0D0E0CC24C394D12CC6010C2EEA
:103EF00002C0880F991F0A94E2F780239123892B2F
:103F000021F4219798F7B12C09C0BC2EB7018C2F52
:103F10000E941B110E943411019799F38B2DCDB78C
:103F2000DEB7E9E00C94EA22CF93DF93EC010E9424
:103F3000601FBE010E941B110E943411DF91CF91BE
:103F40000895923078F5853068F5E82FF0E085E047
:103F5000989FE00DF11D11249E2F977083E0F69538
:103F6000E7958A95E1F7EE0FFF1FEE0FFF1FE45371
:103F7000FD4F40E050E080E0219130E0092E02C08A
:103F8000369527950A94E2F721703327042E01C055
:103F9000220F0A94EAF7822B4F5F5F4F443051059E
:103FA00059F7089580E00895923088F5853078F5C6
:103FB000E82FF0E085E0989FE00DF11D11248E2F91
:103FC000877051E001C0550F8A95EAF783E0F695B6
:103FD000E7958A95E1F7EE0FFF1FEE0FFF1FE45301
:103FE000FD4F20E030E070E04081CB01022E02C0A6
:103FF000969587950A94E2F78170819584278523A9
:10400000842781932F5F3F4F2430310569F708954E
:104010009093BD028093BC02089521E030E002C07D
:10402000220F331F8A95E2F7209530958091BC02CC
:104030009091BD02822393230E940820089521E0DD
:1040400030E002C0220F331F8A95E2F78091BC0254
:104050009091BD02822B932B0E940820089590938B
:104060004B0280934A020895FC0124812223D9F057
:10407000808191810E94941F92959F70963079F073
:1040800010F4925001C09A50923068F4803F69F069
:1040900018F4883E40F409C0843F29F406C0883EE5
:1040A00020F0813F11F080E0089581E008951092A2
:1040B000490280910401882331F08091940187FFA7
:1040C00002C08EE101C086E0E7ECF1E0DF011D9265
:1040D0008A95E9F780E090E00E94DB1680E090E0AE
:1040E0000E94B616109248020E94EA120895882390
:1040F00041F08095909148028923809348020E9464
:10410000EA120895882339F090914802892B809310
:1041100048020E94EA120895882321F00E94E312C7
:104120000E94EA120895882339F090914902892B60
:10413000809349020E94EA120895882349F1682F6A
:104140008CEF860F813A28F485EC91E00E94591695
:104150000CC080E2860F883058F4677081E001C09F
:10416000880F6A95EAF70E94E3120E94EA12089506
:104170008BE5860F833028F480E090E00E94DB1608
:104180000895685A6B3120F480E090E00E94B616E2
:104190000895CF93882309F469C0C82F8CEF8C0F42
:1041A000813AC0F5809104018823E1F08091940167
:1041B00087FF18C0EC2FE695E695E695F0E0EB5307
:1041C000FE4F8281282F30E04C2F477081E090E035
:1041D00002C0880F991F4A95E2F782239323892B07
:1041E00061F412C0E7ECF1E08DEC91E02191C2178F
:1041F00021F08E179F07D1F707C06C2F85EC91E057
:104200000E9459160E94EA126C2F85EC91E00E94E0
:10421000811610C080E28C0F883078F4C77081E07E
:1042200090E001C0880FCA95EAF790914902892B66
:10423000809349020E94EA1219C0EBE5EC0FE330CB
:1042400040F4F0E0E55EFE4F808190E00E94DB16D6
:104250000DC0C85ACB3150F4EC2FF0E0EE0FFF1F29
:10426000E25EFE4F808191810E94B616CF91089543
:104270001F93CF93DF93182F893319F0C0E0D0E05C
:1042800002C0C0E5D0E0812F0E94C920209741F0F4
:104290008FE99FE00197F1F700C000002197F6CF6A
:1042A000812F0E949D20DF91CF911F9108958F92C1
:1042B0009F92AF92BF92CF92DF92EF92FF92CF93F5
:1042C000DF93EC01688179818A819B816115710599
:1042D0008105910521F464E279ED8BE597E02DE10C
:1042E00033EF41E050E00E940B2249015A019B014B
:1042F000AC01A7EAB1E40E942A226B017C01ACEE7A
:10430000B4EFA50194010E943822DC01CB018C0D91
:104310009D1DAE1DBF1DB7FF03C00197A109B04889
:1043200088839983AA83BB839F77DF91CF91FF9086
:10433000EF90DF90CF90BF90AF909F908F900895B7
:104340000E945721089580E091E00E94572108952E
:10435000A0E0B0E08093000190930101A0930201DE
:10436000B09303010895F999FECF92BD81BDF89AEB
:10437000992780B50895A6E1B0E044E050E00C94A0
:10438000FD21A8E1B0E042E050E00C94FD21DC0109
:10439000A40FB51F4150504048F0CB01840F951F2A
:1043A0002E910E94D82141505040D0F70895262FD9
:1043B000F999FECF92BD81BDF89A019700B402161B
:1043C00039F01FBA20BD0FB6F894FA9AF99A0FBEC9
:1043D00008950396272F0E94D8210E94D721252FC8
:1043E0000E94D821242F0C94D8210196272F0E94B7
:1043F000D8210C94D721DC01CB01FC01F999FECF27
:1044000006C0F2BDE1BDF89A319600B40D9241505C
:104410005040B8F70895052E97FB1EF400940E94B3
:10442000222257FD07D00E943D2207FC03D04EF404
:104430000C94222250954095309521953F4F4F4F37
:104440005F4F089590958095709561957F4F8F4F40
:104450009F4F08950E945F22A59F900DB49F900DDD
:10446000A49F800D911D11240895B7FF0C942A225A
:104470000E942A22821B930B0895A1E21A2EAA1BE6
:10448000BB1BFD010DC0AA1FBB1FEE1FFF1FA21704
:10449000B307E407F50720F0A21BB30BE40BF50B01
:1044A000661F771F881F991F1A9469F7609570958A
:1044B000809590959B01AC01BD01CF010895A29F0D
:1044C000B001B39FC001A39F700D811D1124911DE8
:1044D000B29F700D811D1124911D0895991B79E0E3
:1044E00004C0991F961708F0961B881F7A95C9F784
:1044F0008095089587FB082E062687FD819567FD28
:1045000061950E946E220EF4919507FC81950895A5
:10451000AA1BBB1B51E107C0AA1FBB1FA617B707E9
:1045200010F0A61BB70B881F991F5A95A9F7809505
:104530009095BC01CD01089597FB072E16F40094C9
:1045400007D077FD09D00E94882207FC05D03EF4F1
:10455000909581959F4F0895709561957F4F08952F
:10456000EE0FFF1F0590F491E02D09940E945F2249
:10457000332312F48A1B9B0B0C94C0220E945F22EF
:10458000B7FF0895821B930B08952F923F924F928D
:104590005F926F927F928F929F92AF92BF92CF92D3
:1045A000DF92EF92FF920F931F93CF93DF93CDB7DC
:1045B000DEB7CA1BDB0B0FB6F894DEBF0FBECDBF54
:1045C00009942A88398848885F846E847D848C8425
:1045D0009B84AA84B984C884DF80EE80FD800C812E
:1045E0001B81AA81B981CE0FD11D0FB6F894DEBF11
:1045F0000FBECDBFED0108950F93083090F0982FB6
:10460000872F762F652F542F432F322F22270850C4
:10461000F4CF220F331F441F551F661F771F881FBB
:10462000991F0A95B2F70F91089597FB10F8169409
:1046300000080F93083098F00850232F342F452F8F
:10464000562F672F782F892F902DF4CF05949795AB
:1046500087957795679557954795379527950A9547
:10466000AAF70F910895FC014150504030F001909D
:104670000616D1F73197CF01089588279927089515
:10468000FB01DC0104C08D910190801921F441509F
:0E4690005040C8F7881B990B0895F894FFCF8F
:10469E0001000000010102018C0AD40A8B0ACD0A26
:1046AE0001191A1B1C1D1E1F202122818283E2006C
:1046BE00E900EA00B500B600B700CD008301CC00DA
:1046CE008A0192019401210223022402250226026C
:1046DE0027022A02B300B4006F0070009F01CB01C5
:1046EE009F02A002F7F6F5F436323331C6340001DC
:1046FE00020202020606060909090909090F0F0F2F
:10470E000F0F0F1515151819191919191919191936
:0A471E001923242525252525250053
:00000001FF
