:100000000C94C4030C94FC030C94FC030C94FC03AC
:100010000C94FC030C94FC030C94FC030C94FC0364
:100020000C94FC030C94FC030C94B8150C94FA1477
:100030000C94E00A0C94FC030C94FC030C94FC0359
:100040000C94FC030C94FC030C94FC030C94FC0334
:100050000C94FC030C949F0A0C94FC030C94FC037A
:100060000C94FC030C94FC030C94FC030C94FC0314
:100070000C94FC030C94FC030C94FC030C94FC0304
:100080000C94FC030C94FC030C94FC030C94FC03F4
:100090000C94FC030C94FC030C94FC030C94FC03E4
:1000A0000C94FC030C94FC030C94FC031D041F042F
:1000B000210423042504270429042B042D042F04E0
:1000C000310433043504370439043B043D043F0450
:1000D000410443044504470449044B044D044F04C0
:1000E000540456045B045D044D045F04610463041E
:1000F0006504670469046B046D0476047B044D0495
:100100004D044D044D044D044D04A2051606AA05E8
:1001100074057805AE057B05B105BC0586050C06A2
:100120008A05C0058E05C405EE059205C805F805CB
:100130009805CE05D8057F05B5058205B8059D054E
:10014000D305E405040606067005A6051F065E062F
:100150006406350658066A067006760640074007AC
:1001600073077307F4072A092A092A091208A00845
:10017000B108B1087F09A209A709AC09B109B609FC
:10018000BB09C009C509CA09CF09D609D909DC09C3
:10019000DF09E209E509E809EB09EE09F30919139A
:1001A0004013D8144013D8148813AB13D8149A14DE
:1001B000AD140102E001014F0103E0000102E00182
:1001C00001500103E0002300250027025400000035
:1001D0002D002702000023021F0200002E0226022B
:1001E0000000210223020000260225020000170061
:1001F0001100000009000600000005410B4200004C
:100200000D431C4500002C222A440000A452A85291
:1002100000001F001E0000002900A1520000A15292
:10022000A452000020001F0000004F0052000000F8
:100230005200510000002300220000001E02240290
:1002400000002200210000002402380000005100BC
:100250005000000009000B42000017001C45000080
:100260001700060000000900110000000D431100F6
:10027000000005410600000009001C4500001700B1
:100280000B4200000D430600000005411100000074
:100290000D430B42000005411C4500000D430900C1
:1002A00000001700054100001C4506000000110079
:1002B0000B420000170009000000110006000000BA
:1002C0000D43170000000900054100001C45110006
:1002D000000006000B4200001C450B4200000D43CD
:1002E000054100002223252628292A2C2D2F3032D3
:1002F000333536383A3B3D3E4042434547494A4C08
:100300004E5051535557595A5C5E60626466686935
:100310006B6D6F71737577797B7D7F81838587893D
:100320008A8C8E90929496989A9C9E9FA1A3A5A742
:10033000A8AAACAEAFB1B3B4B6B8B9BBBCBEBFC16E
:10034000C2C3C5C6C7C9CACBCCCDCED0D1D2D2D3F9
:10035000D4D5D6D7D7D8D9D9DADADBDBDBDCDCDC0D
:10036000DCDCDDDDDDDDDCDCDCDCDCDBDBDBDADAD0
:10037000D9D9D8D7D7D6D5D4D3D2D2D1D0CECDCC47
:10038000CBCAC9C7C6C5C3C2C1BFBEBCBBB9B8B65C
:10039000B4B3B1AFAEACAAA8A7A5A3A19F9E9C9AE7
:1003A00098969492908E8C8A89878583817F7D7BB5
:1003B00079777573716F6D6B6968666462605E5C96
:1003C0005A5957555351504E4C4A4947454342405C
:1003D0003E3D3B3A3836353332302F2D2C2A2928F2
:1003E000262523220000000000000000000000007D
:1003F00000000000000000000000000000000000FD
:1004000000000000000000007E0F00D4FFFFFFC7C7
:100410000000007800000000000000002A2B2800E7
:1004200000000000000000000000000000000029A3
:10043000000000002C1E3420212224342627252EE3
:10044000362D3738271E1F2021222324252633331B
:10045000362E37381F0405060708090A0B0C0D0E47
:100460000F101112131415161718191A1B1C1D2F13
:100470003130232D350405060708090A0B0C0D0E33
:100480000F101112131415161718191A1B1C1D2FF3
:100490003130354C05010980A101850319012AB7C6
:1004A00000150126B700950175108100C0050C09E3
:1004B00001A101850419012AA002150126A00295B7
:1004C0000175108100C005010906A1018506050717
:1004D00019E029E715002501950875018102050736
:1004E000190029EF1500250195F075018102050815
:1004F0001901290595057501910295017503910171
:10050000C005010906A101050719E029E715002525
:10051000019508750181029501750881010507198A
:100520000029FF150026FF009506750881000508C3
:1005300019012905150025019505750191029501FF
:1005400075039101C009023B00020100A0FA0904F1
:1005500000000103010100092111010001224400F2
:1005600007058103080001090401000103000000E0
:10057000092111010001226D0007058203200001FD
:10058000120100020000000853444107300001023C
:100590000001120370006E006300610074006500CA
:1005A00068006F0000000C03610072006F007500AE
:1005B0006D000000040309040541090017000D4304
:1005C0000B42060011001C452A442C220000210089
:1005D000220023002E001E001F00200063002C229A
:1005E0005300250226022E02E500540027022D00AA
:1005F0002A002C22380024021E0200001F022302BF
:10060000210231002A002C225000510052004F00DC
:10061000A852A452A152290000002C222778237846
:100620002178217828782478227800002A002C224A
:10063000050180FFFFFF00000000040155FFFFFFE0
:1006400000000000030100FFFFFF000000000601A2
:1006500015FFFFFF000000000002BFFFFFFF0000CA
:10066000000058064E0644063A06300600001E0FEB
:100670000500047F3F1F643214643214783C1E1E50
:10068000140A050001010101010101010102020238
:10069000020202020202030303030303030304042E
:1006A00004040404040505050505060606060607F8
:1006B0000707070708080808090909090A0A0A0BB1
:1006C0000B0B0C0C0C0D0D0D0E0E0E0F0F0F101052
:1006D00011111112121313141415151616171718D9
:1006E0001819191A1A1B1B1C1D1D1E1E1F20202144
:1006F0002222232424252626272829292A2B2C2D8B
:100700002D2E2F30313232333435363738393A3BAB
:100710003C3D3E3F404142434445464748494A4CA0
:100720004D4E4F50515354555658595A5B5D5E5F6C
:10073000616264656668696B6C6D6F707273757702
:10074000787A7B7D7E8082838587888A8C8E8F9164
:10075000939596989A9C9EA0A2A3A5A7A9ABADAF8E
:10076000B1B3B5B7BABCBEC0C2C4C6C9CBCDCFD178
:10077000D4D6D8DBDDDFE2E4E7E9EBEEF0F3F5F821
:10078000FAFDFFFFAA7F554011241FBECFEFDAE02C
:10079000DEBFCDBF04B603FE18C08091AA049091BD
:1007A000AB04A091AC04B091AD048730904BA7404E
:1007B000B04B59F41092AA041092AB041092AC04FE
:1007C0001092AD04E0E0F8E3099512E0A0E0B1E09A
:1007D000E4E2F3E502C005900D92A43DB107D9F71C
:1007E00024E0A4EDB2E001C01D92AA3AB207E1F7FD
:1007F0000E94CF1C0C9490290C940000A0E0B0E063
:10080000E4E0F4E00C941229DC0114962C912223EC
:1008100009F4F0C57C0161E00E94FA1FEC01FC01C3
:10082000E154FE47EF32F10508F06BC0EA5AFF4F82
:10083000D70115969C910C94F32887E04FC08EE069
:100840004DC085E14BC089E149C08FE047C08AE0D7
:1008500045C088E043C08DE141C086E13FC080E1F2
:100860003DC088E13BC083E139C086E337C08BE1FE
:1008700035C084E133C08FE231C083E32FC08CE008
:100880002DC087E32BC08AE129C082E127C084E321
:1008900025C084E023C080E321C080E01FC09923ED
:1008A00081F188EC91E02BC084E218C0992349F1D2
:1008B00086EC91E024C085E211C08BE20FC087E294
:1008C0000DC089E30BC08CE409C086E207C089E44F
:1008D00005C088E203C08DE401C08AE4992319F0C1
:1008E0000E9403270EC00E94D7260BC0992349F00F
:1008F0008CEB91E004C0992321F082EB91E00E94FF
:10090000DA11F7018581882319F1C433FCE7DF0789
:10091000C1F050F4C2338CE7D80789F0C3339CE7A9
:10092000D907B1F481E012C0C633ACE7DA0769F049
:1009300050F0C733ECE7DE0759F485E007C080E0EC
:1009400005C082E003C083E001C084E00E94170E6E
:10095000D70115968C918E0108511C47882309F404
:1009600098C0D7FF9CC10E94B00B8093D702909192
:100970003A03913029F481FF03C089E30E94722772
:10098000809188048093D6021092880410923D03CF
:1009900080913A03823019F148F48823E1F08130E4
:1009A000C9F560E070E088E193E032C0843049F13D
:1009B000853081F560E070E08BE191E00E9441229A
:1009C00060E070E085E290E00E94412260E070E02B
:1009D00088E290E01DC082EE0E9403271BC0809138
:1009E000D70280FD03C083E50E94722782EE0E9439
:1009F0000327EFE3FCE93197F1F700C0000087E53A
:100A000004C086EE0E94722788E10E94722702C00D
:100A10000E9441228FE39CE90197F1F700C000009A
:100A2000BE017F7780E090E00E94D00D80913A0374
:100A30008230F1F028F4882371F0813081F025C0F4
:100A4000843009F1853009F560E070E088E290E0DB
:100A50000E9441221AC082EE0E94D72616C08CE264
:100A60000E9472278091D70281FF0FC089E308C0DE
:100A700082EE0E94D7268091D70280FD06C083E5D2
:100A80000E94722702C088E2FBCF8091D602809339
:100A900088040730110508F406C1D70115968C911A
:100AA000882309F40CC41092B603CE0190578397A3
:100AB00008F022C184E090E00E9404289093C303D0
:100AC0008093C203FE01E150F047E232F10520F4C9
:100AD000EB57FF4F0C94F3288091C2038160ACC0A8
:100AE0008091C3038860B4C08091C2038260A4C0B7
:100AF0008091C20320C08091C20388609DC0809114
:100B0000C3031EC08091C3038260A2C08091C20350
:100B1000806192C08091C20380628EC08091C203C6
:100B200080648AC00E9424268091C203806884C0A9
:100B30008091C203886084607FC08091C30382601B
:100B4000816086C08091C2038E7F76C08091C3038E
:100B5000877F7EC08091C2038D7F6EC08091C2036B
:100B600020C08091C203877F67C08091C3031EC0ED
:100B70008091C3038D7F6CC08091C2038F7E5CC067
:100B80008091C2038F7D58C08091C2038F7B54C077
:100B90000E9424268091C2038F774EC08091C203A9
:100BA000877F8B7F49C08091C3038D7F8E7F50C02C
:100BB0008091C20382FB222720F991E0922790FBCB
:100BC00082F990FB83F938C08091C303982F9095E8
:100BD00091708E7F892B90FB81F93AC08091C2037E
:100BE00086FB222720F991E0922790FB86F924C00A
:100BF0000E9424268091C20387FB222720F991E0DE
:100C0000922790FB87F918C061E001C060E08EE098
:100C100090E00E941A281EC08091C20384FB222704
:100C200020F991E0922790FB84F906C08091C203DD
:100C3000982F909590FB80F98093C2030BC0809110
:100C4000C30383FB222720F991E0922790FB83F9CD
:100C50008093C3036091C2037091C30384E090E06A
:100C60000E9438280E94242608C006E221EE41EEA8
:100C70006AE17CE7C7010E94BD0B80916604877022
:100C800009F4B8C3F7018581882309F4B3C38091BF
:100C9000C30382FFAFC382E00E94841AABC3073054
:100CA000110508F000CFF801E955FF4F0C94F32827
:100CB00007E225EE45EE6BE17CE7DCCF06E221EEB4
:100CC00040EE68E17CE7D6CF07E225EE44EE69E12D
:100CD0007CE7D0CF06E221EE42EE6CE17CE7CACFA2
:100CE00007E225EE46EE6DE17CE7C4CF08E221E0A5
:100CF00045EE6EE17CE7BECFC631FCE7DF0709F4C5
:100D0000CEC2F7018581882309F462C0C330FCE7B5
:100D1000DF0709F449C048F4C1158CE7D807A9F0EA
:100D2000C130DC4709F446C053C0CB35ACE7DA0725
:100D300009F44BC0CC35BCE7DB0709F43EC0CA352B
:100D4000DC4709F045C081E041C00E942426FFEF46
:100D500024E38CE0F15020408040E1F700C0000027
:100D600081E08093E00080E28093D8001092C90077
:100D7000AFE1BEE41197F1F700C0000087E090EB0F
:100D8000DC018093AA049093AB04A093AC04B093CD
:100D9000AD049CE088E10FB6F894A89580936000BC
:100DA0000FBE90936000FFCF6FEF7FEF80E090E089
:100DB0000E9438280E942B2260CF8091C30382FBBF
:100DC000882780F991E0892701C080E00E949B1A62
:100DD000F701878190850097C9F4D70115968C910A
:100DE0001597CD91DC91882349F0CE010E942625EC
:100DF000182F682FCE010E949A2504C0CE010E94B0
:100E00006725182FBE01812F0E9458180E9475185F
:100E1000D82FC92FF7011581068102950F70809197
:100E200066048770E9F01123D9F0892F807F803420
:100E300051F080E28D0F883098F0011104C0892FA5
:100E4000807E803269F08091C30382FF09C082E016
:100E50000E94841A809166048770DD24D3948111E6
:100E6000D12CCC2EC2948FE0C8228C2D90E08C30F7
:100E7000910508F0EFC1FC01E255FF4F0C94F328F7
:100E80008C2F807FCF70882311F0C295C07F1123F3
:100E9000B9F0CC2309F4CCC180E28D0F883010F07A
:100EA000D11106C090918804C92BC093880405C055
:100EB00090913D03C92BC0933D030E942B1AB8C1EA
:100EC0008D2F0E94D726CC2309F4C4C180E28D0F58
:100ED000883078F1DD2369F1C09590913D03C923F5
:100EE000C0933D0329C08C2F807FCF70803211F0DA
:100EF000C295C07FDD2321F0D13009F452C05BC020
:100F00008091C30382FD1BC0112369F0CC2339F00B
:100F100090918804C92BC09388040E942B1A80E00A
:100F20000E94032797C180E00E94D726CC2309F4B2
:100F300091C18C2F0E94241A0E942B1A8BC111235D
:100F4000A1F0002309F43BC0013009F083C1809176
:100F500087049C2F9823C91709F47CC18C2B80939C
:100F600087048C2F0E94862275C1011173C18C2FBA
:100F70000E94C626809187049C2F982339F09C2FCD
:100F800090958923809387040E9486228091D902BC
:100F90009C2F982309F45EC1C0958C238093D902BD
:100FA00059C1112321F0063008F054C108C00530A2
:100FB00008F050C115C0112331F0011139C18C2F37
:100FC0000E94CD2647C1002359F0D93309F03FC113
:100FD000FFEF27EE83E0F15020408040E1F735C17C
:100FE0008C2F0E94C62636C18C2F869586958370DD
:100FF00019F0813061F02EC1112321F08D2F9C2F2B
:10100000937002C080E090E00E948B0B2BC11123F3
:1010100021F08D2F9C2F937002C080E090E00E9401
:10102000660B20C18C2F837009F041C0111116C1CD
:101030002D2F229526952770220F220F8D2F8F702E
:1010400090E0022E02C0880F991F0A94E2F7D4FFA5
:101050000BC04FE050E002C0440F551F2A95E2F745
:101060009A012095309502C020E030E0C695C695E3
:10107000C370C23099F068F44091890450918A0499
:10108000C13029F0822B932B8423952304C0842B19
:10109000952B822B932B0E94F525E0C0822B932B5E
:1010A0002091890430918A0482279327F4CF112359
:1010B00019F08C2F817001C08695882309F4CEC069
:1010C0002D2F229526952770220F220F8D2F8F709E
:1010D00090E0022E02C0880F991F0A94E2F7D4FF15
:1010E0000BC04FE050E002C0440F551F2A95E2F7B5
:1010F0009A012095309502C020E030E0C695C69553
:10110000C370C23079F0B8F44091920450919304C6
:10111000C13029F0822B932B842395230EC0842B7E
:10112000952B09C0822B932B20919204309193042C
:101130008227932702C0822B932B0E94CE258EC03C
:10114000CF70112339F08C2F0E94E5258D2F0E943E
:10115000CD2684C08D2F0E94C6268C2F0E94D325B9
:101160007DC0D23F61F128F4D03F41F0D13F11F171
:101170005BC0D33F59F1D43FC9F056C0112391F061
:10118000053008F067C0CF7181E090E002C0880FA1
:10119000991FCA95E2F72091920430919304822717
:1011A000932721C0063008F055C0EDCF8091C303CE
:1011B00082FD1CC0112329F08C2F8F7129C01123AF
:1011C000D9F38C2F8F710E94D32544C0112349F08D
:1011D000CF7181E090E002C0880F991FCA95E2F7B5
:1011E00002C080E090E00E94CE2534C0112399F027
:1011F000CF718C2F0E94E5258091C30382FF07C029
:10120000A8E0CA9FC00111248360809366048C2FDC
:101210000E94E5251FC081E00E94841A0230D0F0B0
:1012200082E00E94841A16C0112321F0002321F2CB
:101230008D2F76CE002329F2D93349F4BFEFE7EEA4
:10124000F3E0B150E040F040E1F700C000008D2F26
:101250000E94D72688EF8C0D843020F40E94B00BBA
:101260000E94EA1FDD20B1F08091660480FD12C06B
:10127000D70115961C928695869586950E94E52540
:10128000C7010E94FE038091660486958695869527
:101290000E94D32560E0C7010E94FA1FABC0809175
:1012A00088048A7A91E009F490E09093D802811141
:1012B00016C069E283EF93E00E94310B0DC0C63186
:1012C0002CE7D20771F48091D802811191C069E2B4
:1012D00083EF93E00E94090B0E942B1ACECC65E3AA
:1012E000E9CF809188048272FE01E052F847E5312F
:1012F000F10508F006CDE654FF4F0C94F3288091D9
:10130000320380FF19C0282F2E7F209332033091A3
:10131000330340913403509135036091360370914B
:10132000370380913803909139030E94EC22109288
:10133000DB020E943A0EA1CC81608093320361E00F
:1013400086954EC049EF54E263E075E22CC043E05D
:1013500055E269EF74E227C04BE954E265EA74E2B2
:1013600022C045EA54E26BE974E21DC041E854E250
:101370006EE874E218C04EE854E261E874E213C00B
:1013800047E654E264E774E20EC044E754E267E6DD
:1013900074E209C042E153E26CE273E204C04CE241
:1013A00053E262E173E20E94330E67CC61E081E0B8
:1013B00017C065E082E019C068E086E016C06EE004
:1013C00089E013C064E18FE010C067E185E10DC0E2
:1013D00061E088E105C062E289E107C061E083E283
:1013E0000E94AF244ACC6AE285E20E941F0E45CCDF
:1013F00065E36ECFCDB7DEB7E8E00C942E2980917F
:10140000C60308950895A3E0B0E0E9E0FAE00C9483
:1014100016298C018091E10281110AC09E012F5F83
:101420003F4F48E76FEF0E945A238A818093E10281
:10143000F8018481813051F028F0823061F44091CC
:10144000E1020AC08091E10240E007C06091E10240
:1014500040E080E003C040E080E060E00E94C12204
:10146000F801848190E0019663E070E00E94DF283B
:1014700084832396E4E00C943229CF93DF93EC012C
:10148000E2E3F3E0438162818C810E940E258C812E
:101490008F5F8C83DF91CF910895CF93DF93EC0121
:1014A000EC81F0E0EC51FD4F4491E2E3F3E0628126
:1014B00081810E940E258C818F5F8C83DF91CF917B
:1014C00008950F931F93CF93DF938B01EA019091BF
:1014D000E903943079F58F708093E9008FEF909154
:1014E000E800815095FD06C095ED9A95F1F7000052
:1014F0008111F5CF8091E80085FF1CC00E948F16F6
:10150000882361F08091E8008E778093E80012C014
:10151000F80181918F018093F1002197209791F339
:101520008091E80085FDF4CF8091E8008E7780936C
:10153000E800E4CFDF91CF911F910F910895789447
:101540001F920F920FB60F9211248F939F93AF9318
:10155000BF938091BE039091BF03A091C003B0914F
:10156000C1030196A11DB11D8093BE039093BF03DB
:10157000A093C003B093C103BF91AF919F918F918E
:101580000F900FBE0F901F9018959C014FB7F894C5
:101590008091BE039091BF03A091C003B091C1039D
:1015A0004FBF821B930B08952FB7F8948091BE0311
:1015B0009091BF03A091C003B091C1032FBF0895C4
:1015C0001F920F920FB60F9211248F939F93AF9398
:1015D000BF938091BD03811113C08091BE03909190
:1015E000BF03A091C003B091C1034196A11DB11DDD
:1015F0008093BE039093BF03A093C003B093C10335
:10160000BF91AF919F918F910F900FBE0F901F9040
:101610001895209151022223C9F02091C20327FF7F
:1016200015C0262F2695269526952E31C8F4FC0147
:10163000E20FF11D677081E090E001C0880F6A95AC
:10164000EAF780959281892382830895FC010696AA
:101650002281621301C012823196E817F907C1F79F
:101660000895209151022223C1F02091C20327FF47
:1016700014C0262F2695269526952E3130F5FC018F
:10168000E20FF11D677081E090E001C0880F6A955C
:10169000EAF79281892B82830895FC0132962FEF1D
:1016A00030E04191641789F02F3F19F4411101C0D6
:1016B000232F3F5F3630A9F72F3F39F0FC01E20FAF
:1016C000F11D27FDFA95628308950895A3E0B0E027
:1016D000ECE6FBE00C9418292091BB033091BC038D
:1016E00028173907A1F09093BC038093BB03E091C6
:1016F000B903F091BA03309751F024E029839B831A
:101700008A830680F781E02DCE0101960995239604
:10171000E2E00C943429A3E0B0E0E1E9FBE00C94B2
:1017200018292091B7033091B80328173907A1F081
:101730009093B8038093B703E091B903F091BA0393
:10174000309751F023E029839B838A830680F781B9
:10175000E02DCE01019609952396E2E00C94342900
:10176000E091B903F091BA03309729F00190F0812C
:10177000E02D0995089580E008950F931F93CF936E
:10178000DF93C42FD22FFC0185818823B1F04093D1
:10179000B6030E94D40A9093B5038093B40380E209
:1017A0008C0F883008F04DC0C77081E001C0880FF1
:1017B000CA95EAF70E94CD2644C08091B60348132B
:1017C00030C08091B4039091B5030E94C50A883C53
:1017D000910538F510E21D0FCD17B9F080E28C0F9E
:1017E000883040F4C77081E001C0880FCA95EAF7DD
:1017F0000E94C626183010F581E09D2F977001C019
:10180000880F9A95EAF70E94CD26802F0E947227B2
:101810001830B8F4D77081E001C0880FDA95EAF784
:101820000AC080E28C0F883060F4C77081E001C08C
:10183000880FCA95EAF70E94C62603C0802F0E942F
:101840007227DF91CF911F910F910895BC014091B4
:10185000B0038091B103942F981729F1292F30E01C
:10186000F901EE0FFF1FE855FC4F0190F081E02DCC
:10187000E617F70799F487E0869FF001879FF00D40
:101880001124E95FFE4F81E0848394130CC02F5F25
:101890003F4F237033272093B00308952F5F3F4FAE
:1018A000922F9370D9CF0895EF92FF920F931F93C9
:1018B000CF93DF9380913F038823D9F1C0913E03FA
:1018C0008DE0F82E80913F03C81778F5EE24E3945D
:1018D000EC0EE0923E03D0E0FC9EF001FD9EF00D88
:1018E0001124E05CFC4F84818823E9F08781908596
:1018F000892B21F481859285019659F4008111810B
:1019000022813381448155816681778180850E945F
:101910004426FC9EF001FD9EF00D1124E05CFC4F7E
:10192000148210923D03CE2DCDCF10923F03109222
:101930003E03CDB7DEB7E6E00C94302910923C03AD
:1019400010923B03E7E0F1E08581811102C014822F
:101950001682379682E0E035F807B1F708951092C5
:10196000B3031092B203109250028091B10380939E
:10197000B0030E949E0C0E94540C0895A0E0B0E0B9
:10198000E4ECFCE00C940829C091B003E7E0FE2EE3
:1019900001E010E0FDE02F2EEE24E3948091B103EE
:1019A000C81709F47AC0D0E0FE01EE0FFF1FE8551A
:1019B000FC4F80819181F89EF001F99EF00D112479
:1019C000E95FFE4F2481211165C060903F03A0E4D0
:1019D000B3E020E030E0712C5F01261508F058C01C
:1019E0001B964D905C901C97F501808091804FEF85
:1019F0005FEF312CC32CD12CF601EE0FFF1FE80D49
:101A0000F91D659174914616570609F4A601672BD6
:101A100011F03394EFCF4F3FFFEF5F07A9F1B8010B
:101A200002C0660F771F4A95E2F7762AA801032CB9
:101A300002C0440F551F0A94E2F741505109672D27
:101A400070E046175707E9F4229EF001239EF00D3F
:101A50001124E05CFC4FF89ED001F99EB00D1124DA
:101A6000A95FBE4F12962D913C9113973087278323
:101A700074E0748310821182928781871596EC92AC
:101A800007C014961C9214972F5F3F4F1D96A5CF49
:101A90000E94260C2196C37081CF0E94540C0E9494
:101AA0009E0CCDB7DEB7E2E10C942429A0E0B0E0B3
:101AB000ECE5FDE00C941329E82FF0E0EC5EFB4F21
:101AC000D490282F26952695269530E0F901EC5FD5
:101AD000FB4F0491877010E0082E02C01595079502
:101AE0000A94E2F701701127F901EC50FC4FE490E1
:101AF000F12C082E02C0F594E7940A94E2F791E0E5
:101B0000E922FF24F901EC51FC4FC491D0E002C05E
:101B1000D595C7958A95E2F7C170DD2701151105A6
:101B200019F081EE0E940327E114F10419F086EE0A
:101B30000E9403278D2D0E947227E114F10419F0F1
:101B400086EE0E94D7260115110519F081EE0E943C
:101B5000D726CD2B19F08CE20E947227CDB7DEB7C5
:101B6000E7E00C942F2990913A03923071F48A3077
:101B700040F490E009966AE070E00E94DF28875AFE
:101B800001C086500E9472270895982F9F709A5026
:101B9000963010F0805D01C0895A0E94560D08955C
:101BA0008F929F92AF92BF92EF92FF920F931F93EB
:101BB000CF93DF934B015C01D0913A038CE1E82E87
:101BC000F12C07E010E021E0D501C4010E2C04C087
:101BD000B695A795979587950A94D2F7C82FCF7099
:101BE000222369F0D43031F4CA3020F080E00E9422
:101BF000B30D05C0C11103C00430110524F48C2FAE
:101C00000E94B30D20E00150110984E0E81AF108A8
:101C10000F3F8FEF1807C1F6DF91CF911F910F9102
:101C2000FF90EF90BF90AF909F908F90089580931A
:101C30003A03682F8CE090E00E941A280895909152
:101C4000320390FF04C09695981748F003C08111A5
:101C500006C090E0961718F40E940325089561E0ED
:101C60000E94AF240895882311F0FA0101C0FB01FE
:101C700009950895A5E0B0E0E0E4FEE00C940C299D
:101C80008091320380FF08C08090DD029090DE02D8
:101C90008114910469F422C0E2EEF2E080E093E066
:101CA00011821082128233968E179F07C9F7ECCFEC
:101CB000A12CB12C66246394712C2091DC02C30109
:101CC0000A2C01C0880F0A94EAF7822309F444C061
:101CD000F401C590D490C114D10469F4259A85B15A
:101CE0008F7D95B190622FB7F894E2EEF2E040C09C
:101CF00035E0C30ED11C45E050E0B601CE0101969F
:101D00000E94ED2709810F3F39F110E08A81980187
:101D1000280F311DC9012B30310514F08AE090E005
:101D20007C01EE0CFF1C8E0D9F1D9C012E513D4F22
:101D30007901C801880F991F080F191F0E511D4FF7
:101D40000E151F05A8F698014D816C818B810E94AC
:101D50005A230D5F1F4FF4CF82E0880E911C9FEF36
:101D6000A91AB90A25E0A216B10409F0A6CFB6CF88
:101D700033E0E030F30789F0319148E095B9000095
:101D800000C037FF85B9330F000000C000C000C09D
:101D900085B900C04A9591F7EBCF2FBF8FE594E04E
:101DA0000197F1F700C000002596EEE00C94282979
:101DB000A0E0B0E0EEEDFEE00C940D29FC01828085
:101DC000748081E08483E4EEF2E09490E3E6F3E053
:101DD000E491009135030695015810E0000F111FA2
:101DE000012F1127C0E0D3E022EEC22E22E0D22E36
:101DF000AA24AA94B12CE919EE2EF12C22E0281580
:101E000030F080913303888380913403898371108B
:101E100003C01B821A824AC08B818823F9F081504B
:101E20008B832FEF829FC00111246C8170E00E9490
:101E3000CB28FB01FF27EC51FD4F8491E82FE919D6
:101E40002FEFE29FC0011124B7010E94CB2880919F
:101E50003503689FB00111247A8328C00E94DD27D2
:101E6000B5010E94DF288017910704F582E08815EC
:101E700088F40E94DD27B5010E94DF2888830E9434
:101E8000DD27209134032695622F70E00E94DF2821
:101E9000280F29831A8280913503843120F0893CF0
:101EA00018F088EC01C084E18C838B8396014A8111
:101EB000698188810E945A23259623E0C20ED11C95
:101EC00083E0C233D80709F099CF0E943A0ECDB70C
:101ED000DEB7EDE00C942929EF92FF920F931F9348
:101EE000CF93DF938C01C2EED2E0E12CF12CF8010C
:101EF0008481F5E0EF16F1041CF4882339F002C068
:101F0000811104C09E014091350302C09E0140E052
:101F100060913403809133030E945A238FEFE81AB3
:101F2000F80A23969AE0E916F10409F70E943A0E9E
:101F3000F801848190E00196817099278483CDB760
:101F4000DEB7E6E00C943029A0E0B0E0EAEAFFE07A
:101F50000C940E29EC014C81042F10E09801D8015B
:101F60000E94A2289B01AC010E946D286B017C019C
:101F7000E0E2F0E0E01BF10BA5E5B0E09B01AC0175
:101F80000E946D284B015C019F01DF010E94F9282E
:101F90009B01AC010E9478289B01AC012C0D3D1DDA
:101FA0004E1D5F1DC501B4010E948028822FF22EB4
:101FB00099E2921728F093E0299F900111240DC017
:101FC00025E530E0281B3109C901880F991F280F2A
:101FD000391F37FF02C02F5F3F4F35952795122FCE
:101FE000109592EEC92E92E0D92E00E085E5E82EFC
:101FF000EF1801FD02C08E2D01C08F2D9601412FDB
:10200000609134030E945A230F5F83E0C80ED11CF5
:102010000A3079F70E943A0E8C81811102C091E05A
:1020200003C0803219F49FEF90930601909106014E
:10203000890F8C83CDB7DEB7ECE00C942A290F937F
:102040001F93CF93DF93C2EED2E0FE011182108284
:102050001282339683E0E030F807C1F700E010E029
:102060008091E002082E000C990B0817190794F0D4
:1020700080910501082E000C990B8017910754F0F0
:102080009E014091350360913403809133030E9497
:102090005A2303C0198218821A820F5F1F4F23969A
:1020A0000A301105E9F60E943A0E809104019091E0
:1020B000E002980F9093E00220910501280F2093F1
:1020C0000501121614F499301CF0819580930401D7
:1020D000DF91CF911F910F910895A0E0B0E0E3E769
:1020E000F0E10C941129FC01828180FF03C0DD2402
:1020F000DA9402C0DD24D39402EE12E0C0E0D0E016
:102100002AE0B22EF80111821082128294E0E92EA8
:10211000F12CC12C8091DF028C0D8B302CF06B2DBB
:102120000E94BD28892F02C087FD865F082E000C03
:10213000990BC817D90791F4809135038E9DA001A2
:102140008F9D500D112455954795559547959801AC
:1021500060913403809133030E945A23CD0CF1E047
:10216000EF1AF108B9F621960D5F1F4FCA30D1055D
:1021700049F60E943A0E8091DF0291E0D91206C022
:10218000811102C089E007C0815005C090E001962E
:10219000BE010E94DF288093DF02CDB7DEB7E9E001
:1021A0000C942D29EF92FF921F93CF93DF93EC01B4
:1021B00082EEE82E82E0F82E10E08C8197014091AB
:1021C000350360913403810F0E945A23175E83E028
:1021D000E80EF11C1A3F89F70E943A0E9A818C8111
:1021E00090FF02C08F5F01C081508C83DF91CF913F
:1021F0001F91FF90EF9008958091EB0387FF11C02E
:102200008091E80082FD05C08091E9038111F8CF3B
:1022100011C08091E8008B770BC08091E90388237F
:1022200049F08091E80080FFF8CF8091E8008E7738
:102230008093E8000895982F973068F59093E9000F
:10224000981739F07091EC002091ED005091F0005A
:1022500003C0242F762F50E021FD02C09F5FECCFFA
:102260003091EB003E7F3093EB003091ED003D7FED
:102270003093ED003091EB0031603093EB007093C0
:10228000EC002093ED005093F0002091EE0027FD2C
:10229000E5CF80E008958F708093E90081E0089594
:1022A0002091F1033091F2032617370748F06115AA
:1022B000710539F42091E8002E772093E80001C0E1
:1022C000B901FC0120E06115710579F18091E90304
:1022D0008823F1F18530F1F18091E80083FD3CC065
:1022E0008091E80082FD2EC08091E80080FFEBCF56
:1022F0002091F3008091F20090E0922B611571051E
:1023000051F08830910538F421912093F10061500B
:1023100071090196F3CF21E0089709F020E0809140
:10232000E8008E778093E800CECF2111CFCF0AC08E
:102330008091E903882361F0853061F08091E800A5
:1023400083FD0AC08091E80082FFF2CF80E008950B
:1023500082E0089583E0089581E00895089543E0C0
:1023600050E0BC0182E00E94610A0895CF93DF93A0
:10237000EC0180915102811105C048E050E0BE019E
:1023800081E00BC08091C20387FF03C040E282E07E
:1023900002C048E081E050E0BE010E94610A80E294
:1023A000FE01A7ECB3E001900D928A95E1F7DF9171
:1023B000CF910895FF920F931F93CF93DF938C01DA
:1023C0008AE0F82EF8018491882309F44CC081300A
:1023D00009F042C0E8012196FE018491813031F478
:1023E0002196FE0184910E94722739C0823039F40F
:1023F000E8012296FE0184910E94032730C08330B9
:1024000039F4E8012296FE0184910E94D72627C064
:10241000843029F5E8012296FE01249180E090E0C5
:1024200030E0205331092A30310560F4F89EA001D4
:10243000F99E500D1124C901840F951F2196FE01AC
:102440002491EECF009759F0EFE9FFE03197F1F7D3
:1024500000C000000197F6CF0E94560DE8018E01E2
:102460000F5F1F4FAFCFCDB7DEB7E5E00C9431293A
:10247000AAE2B0E0EEE3F2E10C941729EBEEF3E010
:1024800083EF93E02091F10021938E179F07D1F7FE
:102490008091EC03833009F461C030F4813071F035
:1024A000823009F49BC0B2C08A3009F487C08B30F7
:1024B00009F46CC0893009F0A9C020C08091EB03F9
:1024C000813A09F0A3C08091E800877F8093E800FB
:1024D0008091EF039091F003892B21F460E287EC67
:1024E00093E003C060E080E090E070E00E94501153
:1024F0008091E8008B778093E80088C08091EB039F
:10250000813209F083C08091EF039091F00302972C
:1025100008F07CC08091E800877F8093E80080917C
:10252000E80082FD05C08091E9038111F8CF6EC0FB
:102530002091F3008091F20090E0922B029731F409
:102540008091F100813011F0863021F48091F1000A
:102550008093C6038091E8008B7754C08091EB0391
:10256000813A09F053C08091EF039091F003892BD9
:1025700009F04CC08091E800877F8093E80080914B
:10258000E80080FFFCCF8091510237C08091EB03BF
:102590008132E1F58091EF039091F003892BB1F541
:1025A0008091E800877F8093E8000E94FC10809172
:1025B000ED03809351020E94242628C08091EB03F2
:1025C000813221F58091E800877F8093E8000E94A6
:1025D000FC108091EE038093C50318C08091EB033B
:1025E000813AA1F48091E800877F8093E800809190
:1025F000E80080FFFCCF8091C5038093F1008091BB
:10260000E8008E778093E8000E94FC108091E8003B
:1026100083FFCEC18091EB039091EC03492F50E0F2
:102620004A30510508F0C4C1FA01E153FF4F0C9440
:10263000F328803821F0823809F0BAC108C08091AF
:10264000E7039091E803992389F082600FC080919D
:10265000EF038F70873008F0ABC18093E900809161
:10266000EB0085FB882780F91092E9009091E80043
:10267000977F9093E8008093F1001092F10065C17C
:10268000282F2D7F09F094C1882319F0823061F042
:102690008FC18091ED03813009F08AC1933009F038
:1026A00080E08093E8032EC08091ED0381112AC061
:1026B0008091EF038F702FEF280F263008F078C13C
:1026C0008093E9002091EB0020FF1CC0933021F49F
:1026D0008091EB00806214C09091EB009061909328
:1026E000EB0021E030E0A90102C0440F551F8A959C
:1026F000E2F74093EA001092EA008091EB008860D4
:102700008093EB001092E9008091E800877F20C160
:1027100081114EC11091ED031F778091E300807805
:10272000812B8093E3008091E800877F8093E8000D
:102730000E94FC108091E80080FFFCCF8091E300B4
:1027400080688093E300111102C082E001C083E041
:102750008093E9032DC18058823008F029C180910F
:10276000ED039091EE038C3D53E0950779F583E0FE
:102770008A838AE289834FB7F894DE01139620E0BA
:102780003EE051E2E32FF0E050935700E49120FF48
:1027900003C0E295EF703F5FEF708E2F90E0EA305C
:1027A00010F0C79601C0C0968D939D932F5F243182
:1027B00049F74FBF8091E800877F8093E8006AE285
:1027C00070E0CE0101960E945011AEC04091EF031F
:1027D0005091F003292F332723303105A9F068F4F5
:1027E0002130310509F4F3C02230310509F0E0C091
:1027F0008BE390E0E5E4F5E044C02132310521F1BE
:102800002232310571F1D4C0992781309105A1F0B0
:1028100058F0029709F0CCC0E2E9F5E0E4918E2F80
:1028200090E0E2E9F5E02AC0E4EBF5E0E4918E2FD8
:1028300090E0E4EBF5E022C0E6EAF5E0E4918E2FCB
:1028400090E0E6EAF5E01AC04115510509F4C4C06C
:102850004130510509F0ACC089E090E0E0E7F5E0D7
:1028600010C04115510509F4BCC04130510509F0B3
:102870009FC08DE690E0E4E9F4E003C0009709F41E
:1028800097C02091E800277F2093E8002091F10372
:102890003091F2038217930708F49C0140E0211560
:1028A000310589F18091E903882309F43DC0853021
:1028B000D9F18091E80083FD37C08091E80082FD66
:1028C0002FC08091E80080FFEACF4091F300809113
:1028D000F20090E0942B2115310559F088309105D4
:1028E00040F444914093F100319621503109019612
:1028F000F2CF41E0089709F040E08091E8008E7740
:102900008093E800CCCF4111CDCF0AC08091E9037C
:10291000882351F0853041F08091E80083FD04C0A8
:102920008091E80082FFF2CF8091E8008B7780935E
:10293000E8003EC08038E1F58091E800877F809311
:10294000E8008091EA038093F1008091E8008E779F
:102950008093E8000E94FC102BC0811129C0809157
:10296000ED039091EE039927029714F58091E8000A
:10297000877F8093E8001091ED031093EA030E9493
:10298000FC10111106C08091E30087FD02C081E0B8
:1029900001C084E08093E90342E061EC81E00E94A1
:1029A0001B1142E261EC82E00E941B118091E9035D
:1029B0008091E80083FF1AC08091E800877F8093B0
:1029C000E8008091EB0080628093EB000FC082E111
:1029D00090E0E0E8F5E055CF89E090E0E7E5F5E04C
:1029E00050CF84E490E0E1E0F5E04BCFAA96E3E03D
:1029F0000C9433291F920F920FB60F9211242F932C
:102A00003F934F935F936F937F938F939F93AF9376
:102A1000BF93CF93DF93EF93FF93C091E900CF7003
:102A20008091EC00D82FD17080FDD0E81092E900A1
:102A30008091F000877F8093F00078940E94381294
:102A40001092E9008091F00088608093F000CD2B17
:102A5000CF70C093E900FF91EF91DF91CF91BF91CB
:102A6000AF919F918F917F916F915F914F913F9126
:102A70002F910F900FBE0F901F901895E8EDF0E08A
:102A800080818E7F80831092E2001092DA00109293
:102A9000E100A0EEB0E08C9181608C9380818F7713
:102AA000808319BCA7EDB0E08C918E7F8C938081E0
:102AB0008F7E80831092C4030895A0E0B0E0E3E627
:102AC000F5E10C941229C8EDD0E088818F7E8883CF
:102AD000E7EDF0E080818160808384E082BF81E067
:102AE0008093C40388818E7F888302EE10E0F80112
:102AF00010821092DA0081EEC82ED12CF6011082DD
:102B000088818F77888388818068888388818F7D9A
:102B1000888319BC1092E9031092EA031092E8032B
:102B20001092E70390EEE92EF12CF70180818B7F64
:102B3000808388818160888342E060E080E00E9439
:102B40001B11F60180818E7F8083F8018081816076
:102B50008083808188608083F70180818E7F80837D
:102B6000888180618883CDB7DEB7E8E00C942E2998
:102B70001F920F920FB60F9211242F933F934F93F2
:102B80005F936F937F938F939F93AF93BF93EF93D5
:102B9000FF938091E10082FF09C08091E20082FFF3
:102BA00005C08091E1008B7F8093E1008091DA0085
:102BB00080FF2AC08091D80080FF26C08091DA0073
:102BC0008E7F8093DA008091D90080FF18C080E169
:102BD00089BD82E189BD09B400FEFDCF81E080930B
:102BE000E9038091C40381110FC00E943E150E9429
:102BF0005D158091E20084608093E20005C019BCFD
:102C00001092E9031092C4038091E10080FF17C085
:102C10008091E20080FF13C08091E2008E7F80935C
:102C2000E2008091E20080618093E2008091D80010
:102C300080628093D80019BC85E08093E90380917D
:102C4000E10084FF30C08091E20084FF2CC080E16D
:102C500089BD82E189BD09B400FEFDCF8091D80015
:102C60008F7D8093D8008091E1008F7E8093E1007A
:102C70008091E2008F7E8093E2008091E20081608B
:102C80008093E2008091EA03882311F084E007C07A
:102C90008091E30087FD02C081E001C083E0809362
:102CA000E9038091E9038091E10083FF27C08091CF
:102CB000E20083FF23C08091E100877F8093E100E1
:102CC00082E08093E9031092EA038091E1008E7F15
:102CD0008093E1008091E2008E7F8093E2008091FA
:102CE000E20080618093E20042E060E080E00E94C8
:102CF0001B118091F00088608093F000FF91EF91AC
:102D0000BF91AF919F918F917F916F915F914F9103
:102D10003F912F910F900FBE0F901F90189520910B
:102D2000E4003091E50095E64091EC00842F81703D
:102D300040FF23C08091E80080FD1DC08091E90321
:102D4000882399F0853099F08091EB0085FD11C0C2
:102D50004091E4005091E5002417350729F3915084
:102D600011F09A01E1CF84E0089582E0089583E0B4
:102D7000089581E0089580E008954091E80042FFC1
:102D8000DDCF089580E008959091C20392FF10C0B6
:102D900041E0282F2471243009F040E031E0282F51
:102DA0002871283009F030E0431711F02CE0822719
:102DB00093FF10C041E0282F2471243109F040E036
:102DC00031E0282F2871283109F030E0431711F045
:102DD0002CE082273091C30330FF10C051E0282F30
:102DE0002171213009F050E041E0282F287128306E
:102DF00009F040E0541711F029E0822731FF10C09C
:102E000041E0282F2171213109F040E031E0282FE5
:102E10002871283109F030E0431711F029E08227AA
:102E200094FD877E08958238910569F1B0F481336D
:102E3000910509F475C048F48932910509F467C019
:102E40008A32910509F471C008958533910509F41A
:102E500059C089339105B9F00895833E910589F1F0
:102E600038F4803E9105D1F0823E910529F1089514
:102E7000863E9105C9F1873E9105D9F1843E9105C1
:102E800009F06CC027C02091C20320FD57C021FD6E
:102E900055C02091C30323FD5BC008958091C203F8
:102EA00080FD48C08091C30380FF48C08091C20369
:102EB00084FD46C083EE51C08091C20382FF3CC0B6
:102EC000F5CF8091C20382FD37C08091C30380FD9E
:102ED00035C0ECCF8091C30381FF36C08091C2031F
:102EE00084FD2EC087EE39C08091C20383FF2AC0C3
:102EF000F5CF8091C20383FD25C08091C30381FD7E
:102F000023C0ECCF8091C20385FD22C01FC08091F9
:102F1000C20385FD1BC08091C30383FF19C00AC093
:102F20008091C20386FD16C017C08091C20386FD42
:102F300013C010C089E311C082EE0FC080EE0DC037
:102F400080E00BC086EE09C084EE07C085E305C0B3
:102F500089E203C08AE201C081E390E008952091F4
:102F6000650490911C0459E02917A9F030E0529FA4
:102F7000F001539FF00D1124E35EFB4F7181761336
:102F800006C07081781303C07581741306C02F5F6B
:102F90003F4F2770E9CF80E0089581E00895CF92F8
:102FA000DF92EF92FF921F93CF93DF9300D0CDB7C4
:102FB000DEB71A821982CE0101966C01EEE9F2E0C9
:102FC00088EAE82E82E0F82EB60140E050E010E0FA
:102FD00031E0CF01840F951FDC012C912F3F91F040
:102FE000822F82958F7090E0DC0190968C9190E01A
:102FF0002F7002C0959587952A95E2F780FD02C053
:10300000832F02C080E090E0182B330F4F5F5F4F9B
:1030100045305105F1F6D6011D936D013596EE163A
:10302000FF0699F642E050E080E994E00E9483298F
:10303000892B79F089819A819093910480939004EF
:1030400081E080938F040E94D40A90938E04809331
:103050008D0480918F04811102C080E01FC0809197
:103060008D0490918E040E94C50A0597B0F342E04A
:1030700050E060E974E085E994E00E948329892B9F
:1030800051F08091900490919104909396048093D4
:10309000950481E001C080E010928F040F900F90A2
:1030A000DF91CF911F91FF90EF90DF90CF90089527
:1030B0007230B0F46530A0F48630A0F49AE0899FB5
:1030C000F001112485E0789FE00DF11D1124E60F39
:1030D000F11DEE0FFF1FE854FA4F8591949108956A
:1030E00080E001C081E090E008951F93CF93DF93CB
:1030F0000E941317EC01C11580E5D807E8F5C1154A
:1031000090E4D90708F0A8C0C03ED10530F5CD3C09
:10311000D10508F094C0C83AD10578F4C53AD10574
:1031200008F083C0C130D10509F47CC008F4F2C0B6
:10313000C430D10508F0F1C0EDC0C33CD10508F0A2
:10314000E9C0C85AD0E0CC0FDD1FC859DD4F099047
:10315000D881C02DCE019464E1C0C11580E2D807AA
:1031600008F0CBC0C11591E0D90708F06BC0C83E8C
:10317000D10508F4D2C0CEC0C03682E5D80728F504
:10318000C03492E5D90708F079C0C03282E5D8078B
:1031900008F06CC0C11592E5D90708F481C04C2F26
:1031A0004695469580E2489FA0011124C37021E016
:1031B00030E0C90102C0880F991FCA95E2F7EA0101
:1031C000C82BD92BCE019D68A9C0C03A82E5D8078B
:1031D000B8F48C2F8F71C03892E5D90708F07BC006
:1031E0008695869590E2899F90011124C37081E0B5
:1031F00090E002C0880F991FCA95E2F79A6868C0EC
:10320000C03C82E5D80708F46DC0C03E92E5D907FE
:1032100008F080C0CF71DD27DC2FCC27CE01806F76
:10322000906A7CC081E090E079C0C55AD0E0CB596B
:10323000DD4F8881C82FD0E0CE0190646FC0CE01F1
:1032400090656CC08D2F0E94C416182FCE0199274F
:103250000E9413171F715CC0CE0199270E9413179B
:10326000CC27DF70D06A8C2B9D2B58C0CF71D0E05B
:10327000DC2FCC27CE01816F906A50C08C2F8F71CC
:103280008695869590E2899F90011124C37081E014
:1032900090E002C0880F991FCA95E2F79C6818C099
:1032A0008C2F8F710E94C41695E0D695C7959A957C
:1032B000E1F7CF70D0E0DC2FCC27282F30E084FF5F
:1032C00005C084E0220F331F8A95E1F7D069CE0153
:1032D000822B932B23C090E0D82FCC27CE01846F74
:1032E000906A1CC08C2F8F710E94C4168F7190E061
:1032F000D82FCC27CE01906211C08D2F8F710E94E4
:10330000C416182FCE0199270E9413171F719062BF
:10331000912B04C080E090E001C0CE01DF91CF91FD
:103320001F910895A6E0B0E0E8E9F9E10C941629B0
:103330000E94D40A8C0180918B0490918C04081710
:10334000190781F019821A820E94D40A682F4981D4
:103350005A81792F80E090E00E942A2010938C04FB
:1033600000938B042696E4E00C943229A8E0B0E0A8
:10337000ECEBF9E10C94182966EE7EEF80E090E02A
:103380000E94382860E082E090E00E941A2860E005
:1033900083E090E00E941A2810928A041092890417
:1033A00060E074E184E090E00E94382860E086E00C
:1033B00090E00E941A286FEF87E090E00E941A28A0
:1033C00040E050E0BA0188E090E00E942C2860E0E4
:1033D00084E290E00E941A2860E087E190E00E9479
:1033E0001A2860E08CE090E00E941A2860E08DE0EE
:1033F00090E00E941A2819821A821B821C821D8268
:103400001E821F82188648E050E068E170E0CE011D
:1034100001960E940A2840E050E0BA0180E290E064
:103420000E942C2840E050E0BA018FE090E00E941A
:103430002C2840E050E0BA0183E190E00E942C2863
:103440002896E2E00C943429809590918804892391
:103450008093880408959091880480913D03982B6F
:103460009093F303809187048823F9F0892B80934C
:10347000F30380915102882331F08091C20387FFCA
:1034800002C08EE101C086E0E5EFF3E090E08150FC
:1034900028F021912223D9F39F5FF9CF992329F0B6
:1034A0001092870480E00E94862240E250E067E6A6
:1034B00074E083EF93E00E948329892B21F180E25D
:1034C000E3EFF3E0A7E6B4E001900D928A95E1F70F
:1034D000E091B903F091BA033097A9F080915102BD
:1034E000882359F08091C20387FF07C08091F303BE
:1034F0008093F40386E08093F3030280F381E02D50
:1035000083EF93E00995089590916604809589234F
:1035100080936604282F277069F4981759F09091CA
:10352000C30392FF07C08695869586950E94D32592
:103530001092660408959091C30392FB222720F90C
:10354000281779F080FB92F99093C3036091C2032E
:103550007091C30384E090E00E94382882E00E94CA
:10356000841A08958091650490911C04891719F0BC
:103570008F5F8770FBCF0895CF93DF9380911904FD
:1035800082958F7009F04EC080911804882309F449
:1035900049C08091650440911C04509114046091CD
:1035A0001304C0911504D091160479E08417D1F169
:1035B00090E0789FF001799FF00D1124DF01A35E68
:1035C000BB4F14962C911497222349F111962C91FC
:1035D0001197251324C02C91261321C015962C91E8
:1035E000159721111CC012962D913C9113972C1BFD
:1035F0003D0B283C310598F4809119048F7080614F
:1036000080931904ED5DFB4F80818F708061808312
:1036100083E194E00E94FE030E94B21A03C0019667
:103620008770C4CFDF91CF910895A8E1B0E0EBE1BE
:10363000FBE10C940E298C0186E0F801DE01539623
:1036400001900D928A95E1F7F8018481E58093E17C
:10365000892E94E0992E90911704911120C088230F
:1036600009F496C1EE2009F442C0C8010E94FA256F
:10367000F82E8823E1F189E0F801D40101900D9240
:103680008A95E1F780911704813031F48091130419
:10369000909114040E945A250E94BC1A7BC1F80123
:1036A000D080C180A280B380F090180420911504CE
:1036B00030911604FF2009F410C1A501421B530BE1
:1036C000483C510508F0B6C0882309F463C18091D5
:1036D0001904282F207F90911404222361F09C1557
:1036E00009F469C0C8010E94FA25811176C0C80199
:1036F0000E94FE034DC19C111CC0909113049D11AA
:1037000018C040911A0450911B042781308542173C
:10371000530779F4E1100DC08F7080618093190414
:1037200083E194E00E94FE0380911904F8018683EE
:103730002DC1E1103AC040E06C2D8D2D0E94AF17D5
:1037400040E06C2D8D2D0E94AF17E82E81111EC117
:10375000DB8ACC8A8B899C890E945A25292F229545
:103760002F70243020F49F70223028F009C02A5096
:10377000223080F014C0992349F0811107C013C092
:10378000992321F0F8019681907F69F0805E88305E
:1037900030F409C0803F38F0815F833020F0C801E9
:1037A0000E94FE03EF2CFE2CF5C08091190481606D
:1037B00080931904EBC0909113049D1193CF409115
:1037C0001A0450911B04F8012781308542175307D2
:1037D00009F088CFE11086CFB8C0EE2009F487CF7A
:1037E00020911904822F82958F7090E00297BCF08F
:1037F00080911304909114049B878A87BD86AC86C0
:10380000809117048E871F86288B80911A049091CF
:103810001B049A8B898BCE010A960E94FE0389E0D5
:10382000F801A3E1B4E001900D928A95E1F70E94BE
:10383000BC1AAEC090911904292F207F51F483E166
:1038400094E00E94FE0389E0F40111928A95E9F761
:103850009DC0882309F49EC0809114048C1115C06A
:10386000809113048D1111C040911A0450911B04D2
:10387000F801278130854217530739F4E11005C05C
:103880009683C8010E94FE037BC0C8010E94FA25EE
:10389000882309F42CCFEE2009F429CF20911904B4
:1038A000822F82958F7090E002970CF4B8CF8091B0
:1038B0001304909114049A838983BC82AB82809113
:1038C00017048D831E822F8380911A0490911B040C
:1038D00099878887CE010196A0CFA21AB30AF8EC87
:1038E000AF16B10408F04CC0882309F451C0FE2C77
:1038F000EE2009F4FCCE809114048C1133C0809129
:1039000013048D112FC020911A0430911B04F8016B
:10391000878190852817390729F58091190480FD42
:1039200018C082958F70482F50E04115510589F0DD
:103930002091190426834F30510541F08F5F982F55
:103940009295907F822F8F70892B8683C8010E9469
:10395000FE0389E0F801A3E1B4E001900D928A959D
:10396000E1F718C0C8010E94FA25811158CF809153
:103970001904816080931904C8010E94FE030AC0E3
:1039800089E0F40111928A95E9F704C0F12C02C094
:10399000FF24F3948F2D6896ECE00C942A29A6E07E
:1039A000B0E0E5EDFCE10C940A2985B7806885BF9D
:1039B00085B7806885BF84B7877F84BF0FB6F894CA
:1039C000A8958091600088618093600010926000EB
:1039D0000FBE90E080E80FB6F8948093610090935A
:1039E00061000FBE82EC96E19093D5028093D402E1
:1039F0000E943E150E945D158091E20084608093D4
:103A0000E20078948091E9038823A1F01091E90005
:103A10001F709091EC00892F817090FD80E8182B29
:103A20001092E9008091E80083FD0E9438121F7017
:103A30001093E90082E084BD93E095BD9AEF97BDB5
:103A400080936E004EE952E0A8EAB2E001E010E097
:103A500020E030E0FA01E20FF31F80818F3FA1F0F8
:103A6000E82FE295EF70F0E061A18F70780102C05D
:103A7000EE0CFF1C8A95E2F7C7019E2D90959623C8
:103A800091A392A1892B82A32F5F3F4F253031054F
:103A900009F74B5F5F4FA417B507D1F61092960454
:103AA00010929504109291041092900480E090E09E
:103AB0000E940428863E9E4F11F00E94B61982E0B3
:103AC00090E00E94F6278093970484E090E00E94A3
:103AD00004289093C3038093C20383E090E00E9484
:103AE000F62790E00E94F5258CE090E00E94F627F2
:103AF00080933A0380919404811176C080E090E035
:103B00000E940428863E9E4F21F00E94B6190E9412
:103B1000462388E090E00E94FE274B015C0184E28E
:103B200090E00E94F627282F30E040E050E060E06F
:103B300070E080E090E000E20E943F2928293929C6
:103B40004A295B2920933203309333034093340393
:103B50005093350360933603709337038093380393
:103B6000909339032E7F89F50E94462388E090E0E8
:103B70000E94FE276B017C0184E290E00E94F62700
:103B8000282F30E040E050E060E070E080E090E01E
:103B90000E943F29B22FA32FF42FE52F5B0197013D
:103BA0008601BC29A12BF22BE32BB0933203A09307
:103BB0003303F0933403E093350360933603B092FC
:103BC000370380933803909339030E94D2221092D6
:103BD000DB028091320380FF04C060E086950E9482
:103BE000AF2481E08093940482E696E09093DE0215
:103BF0008093DD0282E592E09093BA038093B9034B
:103C000018E1E12EF12C00E4C02EBB24B394B0E106
:103C1000DB2E8091E903853009F045C012E18091E7
:103C2000E903853009F039C08091E903843021F13E
:103C300080E00E94EA1F1092BD030FB6F894A89589
:103C4000E09260000FBEC092600083B7817F846005
:103C500083BF83B7816083BF7894889583B78E7F55
:103C600083BF0FB6F894A895809160008861809317
:103C70006000109260000FBE8091E803882309F471
:103C8000CECF0E94CF1780919504811160C18091A1
:103C90009604882309F4C3CF5AC10E9424260E94A7
:103CA000B00B0E94EA1F0E94CF1790919804809158
:103CB0009504981306C090919604809199049817E2
:103CC00041F0A5E98A2EA4E09A2E08E914E0A12C7F
:103CD00003C00E94921939C0F40141904F01F801CC
:103CE0005080542409F1712C66246394862D85211B
:103CF000A1F07982AA820E94D40A9C838B83BD8220
:103D000091E0862D842109F490E09E8349815A81B7
:103D10006B817C818D810E942A207394660CF5E072
:103D20007F12E4CFF8014082A3940F5F1F4FF2E0AF
:103D3000AF12D2CF8FB7F8944091BE035091BF031A
:103D40006091C0037091C1038FBF8091500288239E
:103D500041F18091B2039091B303009711F10E9459
:103D6000C50A20913B0330913C0328173907C8F45A
:103D70009091B0038091B103981759F00E94BE0C46
:103D800010923C0310923B031092B3031092B203C3
:103D900008C00E94540C1092B3031092B2030E9408
:103DA0009E0C8091DB02882309F4A5C08091DA0281
:103DB000E0913203E695E81BE0939D04823059F4CC
:103DC000F0E0E158F94FE4910E2F10E0FDE48F2E62
:103DD000FAE09F2E6BC0863059F4F0E0E458F94FBA
:103DE000E4910E2F10E0EDE38E2EEAE09E2E5EC0F1
:103DF000893061F4E695F0E0E758F94FE4910E2F31
:103E000010E072ED872E70E1972E50C08F3061F474
:103E1000E695F0E0EA58F94FE4910E2F10E06DE6D8
:103E2000862E60E1962E42C0853159F4F0E0ED58BF
:103E3000F94FE4910E2F10E05FE1852E50E1952EB1
:103E400035C08831F9F0833249F4E1E7F6E00591B5
:103E5000149143E0842E4AE0942E28C08432C9F0A5
:103E60008532F1F48E2F63E00E94B128E92FF0E053
:103E7000E259F94FE4910E2F10E038ED832E3EE029
:103E8000932E14C008E210E024EA822E2FE0922E36
:103E90000DC004EF11E09CE6892E9FE0992E06C02C
:103EA00000ED17E082E0882E8AE0982E80919E0433
:103EB000882361F010929E040E94D40A90939C047F
:103EC00080939B041092A00410929F040E94D40A35
:103ED000E0919B04F0919C048E1B9F0B8F3F9F47AA
:103EE00050F40E0F1F1F10939C0400939B048BE94A
:103EF00094E0F40109958091A104882389F010923F
:103F0000A1048091DB02811106C08091320360E040
:103F100086950E94AF248091320380FF0E943A0E62
:103F20000E94B00B90919A04891709F472CE809385
:103F30009A049FB7F8944091BE035091BF036091DB
:103F4000C0037091C1039FBF0E94EA1F60CED9BC1D
:103F500019BD09B400FEFDCF8091D8008F7D8093FC
:103F6000D8008091E00082608093E0008091E000C2
:103F700081FDFCCF0E94242652CE9C013A9521154A
:103F80003F4130F5BC0166277270AC014427547084
:103F90009C012227387094FF0FC090FF02C080E17F
:103FA00001C080E0672B09F08062452B09F0806436
:103FB000232B79F080680895892F8170672B09F091
:103FC0008260452B09F08460232B19F088600895E6
:103FD00080E00895CF93C82FC17081FB662760F9F8
:103FE00080E00E94AA2261E06C2781E00E94AA2260
:103FF000CF910895A6E0B0E0E0E0F0E20C9417293C
:10400000FC0187819085009709F5CF0126E0DE014C
:10401000119601900D922A95E1F7FC012581898185
:104020009A81222359F0662349F00E942625182FF1
:10403000682F89819A810E949A2503C00E94672572
:10404000182F69817A81812F0E9458182696E3E003
:104050000C943329ADE1B0E0E0E3F0E20C940829E0
:104060004B8B5C8B6D8B7E8B8F8B988F911110920D
:104070003D03CE010A9629E0FC0111922A95E9F749
:1040800026E0FE017396DC0101900D922A95E1F77E
:104090002E8521110CC00A851B852C853D854E85FA
:1040A0005F85688979898A890E944426D0C161E048
:1040B0000E94FA1F6C018035FCE79F0739F48F8559
:1040C0008823C9F081E080935002BEC181352CE77E
:1040D000920731F48F85882371F00E94AF0CB4C130
:1040E00082359C4741F48F85882329F080915002C6
:1040F000882341F3F2CFF7E0EF2EF1E0FF2E512CB1
:10410000A12CB12C88248394912C44244394CE0177
:1041100001969A8F898FF7014081518166246A94B4
:10412000762C60E0262F30E0F901EE0FFF1FE40F40
:10413000F51F85919491C816D90609F43901892B88
:1041400011F06F5FEFCFFFEF6F167F0609F41AC112
:10415000F7017481711103C08091500202C080E0A8
:1041600090E081701F85F70195812681112309F464
:10417000AFC0882309F4ACC0911114C0C401062C4F
:1041800001C0880F0A94EAF7282B268380913B030D
:1041900090913C03C29730F482E390E090933C030B
:1041A00080933B03940102C0220F331F6A95E2F70C
:1041B00021503109F701868190E02817390709F06D
:1041C000E2C08091B2039091B303009729F00E945E
:1041D000C50AC39708F032C18091B003B091B10312
:1041E000982FE0E0F0E08B1709F45EC0282F30E054
:1041F000F901EE0FFF1FE855FC4F6080718047E02A
:10420000469DF001479DF00D1124E95FFE4F0081AE
:1042100041814D8FA0E060E070E0E02FFD8DE70F61
:10422000F11DE70FF11D2590349021143104D1F0D8
:10423000F701F081FB8FF701F181FC8F60E0EB8DDE
:10424000FC8DE60FF11DE60FF11D459154914115CE
:10425000510531F02416350609F4A1E06F5FEFCF68
:104260007F5FDBCFAA23C9F0671708F4E1C047E0FE
:10427000469DF001479DF00D1124E95FFE4F3097F8
:1042800071F04482EE16FF0609F4DBC0891307C003
:10429000C9010196982F937002C0E0E0F0E02F5F13
:1042A0003F4F822F83709FCF9093B003EE15FF0591
:1042B00009F469C090E0FC01EE0FFF1FE855FC4FC8
:1042C000B182A0820196837099278093B1035BC06D
:1042D000911112C0A40102C0440F551F6A95E2F764
:1042E0004150510930E042175307F1F57723E9F1C6
:1042F000C5010E94260C38C0822F90E09C012150FD
:10430000310928233923062C02C0959587950A94F4
:10431000E2F7232B39F580FF25C0F70182819381D5
:10432000892BE1F089E0E98DFA8D11928A95E9F700
:104330000E94D40A282F8B839C8384E08D83F7010D
:1043400082819381782F8887998709811A813C819E
:1043500044E05E816F81892F0E944426F701158217
:1043600081E003C0817001C080E09401062C01C08F
:10437000220F0A94EAF72095F701968129232683D4
:10438000182F01C010E0512AFFEFAF1ABF0A27E033
:10439000E20EF11C4FE2A416B10409F0BCCE8F85E9
:1043A000882379F1552069F10E94D40A9093B303D0
:1043B0008093B20380913F038830A0F591E0980F7D
:1043C00090933F0399E0FE013A96DE011196019029
:1043D0000D929A95E1F7EDE08E9FC0011124805C6B
:1043E0009C4F29E0FE013196DC0101900D922A9547
:1043F000E1F72FEF3FEFFC0132872187D486C38698
:1044000011C09091B0038091B103981719F00E94E8
:10441000BE0C08C00E94540C1092B3031092B20359
:104420000E949E0C81E05826852D80FD34CE0FC061
:10443000E114F10409F431CF9093B003F701448201
:10444000A2CF9093B0039FCF81E090E0EECF6D9626
:10445000E2E10C9424290E9424262FEF84E39CE0BF
:10446000215080409040E1F700C000009CE088E1CE
:104470000FB6F894A895809360000FBE90936000EB
:10448000FFCFEF92FF920F931F93CF93DF93EC0137
:104490008B017C0180EEE81AF10898E0E916F1043E
:1044A00010F0209731F4CE010E94BD1F0E94CD264E
:1044B00005C0CE010E94BD1F0E94BC268C2F0E9409
:1044C00003270115110549F08FE99FE00197F1F7E6
:1044D00000C0000001501109F4CF8C2F0E94D72694
:1044E00098E0E916F10410F0209731F4CE010E9413
:1044F000BD1F0E94C62605C0CE010E94BD1F0E949E
:10450000B126CDB7DEB7E6E00C943029CF93C82FA3
:10451000817121F061E082E00E94AA228C2F8474D4
:1045200021F061E083E00E94AA228C2F887811F0AC
:1045300061E00BC0C1110CC060E082E00E94AA22C1
:1045400060E083E00E94AA2260E084E00E94AA2248
:10455000CF91089521E030E0A90102C0440F551F1A
:104560008A95E2F7CA012091DC02662311F0822BC2
:1045700002C0809582238093DC0281E08093A104B5
:1045800008959091320390FF0CC0E2EEF2E0818337
:1045900060834283339693E0E030F907C1F70E94CD
:1045A0003A0E089580913203282F269530E0211588
:1045B000310519F48170826005C02B32310524F079
:1045C000817084658093320380913503893718F0B8
:1045D00088E7809335030895A0E0B0E0E2EFF2E2CF
:1045E0000C940E2949015A016B017C010E94D222D0
:1045F0008401A4016A2D7B2D88E090E00E942C2884
:1046000094014A2D5B2DB601C70100E20E945A2990
:10461000622F84E290E00E941A28CDB7DEB7ECE06A
:104620000C942A2980913603882319F081508093B5
:10463000360320913203309133034091340350917B
:104640003503609136037091370380913803909160
:1046500039030E94EC22089580913603833018F4C8
:104660008F5F809336032091320330913303409162
:104670003403509135036091360370913703809174
:104680003803909139030E94EC220895E2E3F3E0AD
:1046900023E0208311828FEF828388E78383148253
:1046A000758130E04FEF58E760E0868197810E9486
:1046B000EC220895A0E0B0E0E0E6F3E20C941029CB
:1046C000E82EF62EE901493708F048E7E42FF0E03C
:1046D000F11006C0ED57F94FE4914E2F2E2F71C007
:1046E0000F2D10E0ED57F94F4491F42FC42ED12C2B
:1046F00026E0E29EC00111242FEF30E0B9010E94B4
:10470000CB285BEA5603C001579F900D11248E0DF4
:10471000911D8E0D911D582F550F580FD901A01BBB
:10472000B10BAC9DC001AD9D900DBC9D900D1124B1
:10473000E92FF59ED0011124AB2FBB277901EA1A8E
:10474000FB0AEC9CD001ED9CB00DFC9CB00D11243B
:104750005901A51AB108A09E7001A19EF00CB09E4F
:10476000F00C1124EF2CFF242E193F092C9D800101
:104770002D9D100D3C9D100D1124212F62307105CF
:1047800091F048F461157105E1F061307105B9F4FB
:10479000242F4B2F16C06430710569F040F066304D
:1047A000710579F00CC0242F492FE12F0AC0492F41
:1047B000EF2F2B2F06C0292FE42F412F02C0292FC6
:1047C000EB2F49832883EA83CDB7DEB7EAE00C9468
:1047D0002C29A3E0B0E0EFEEF3E20C940B29F82EC5
:1047E000762EE42E622E9091320390FF6CC0E92F5A
:1047F000E695AE2FB0E0A855BD4F8C918093DA02BC
:104800009E7F923061F49E012F5F3F4F8F2D0E945B
:104810005A234B8169818A810E94C1223DC0823026
:1048200019F4E090350338C0863019F4F090330362
:1048300033C08930D9F3893179F5E9518E2F8170F0
:10484000582EE695F0E0ED57F84FE4910E2F10E06A
:1048500082EEC82E82E0D82EA12CB12C9AE0892EAF
:10486000912CC501B4010E94CB288F2D511002C09C
:10487000860F01C0861B96014E2D672D0E945A237C
:10488000A00EB11E83E0C80ED11C80E0C81683E0E4
:10489000D80639F70E943A0EF0923303709234032F
:1048A000E0923503662079F020913203609136035F
:1048B000709137033F2D472D5E2D809138039091E5
:1048C00039030E94EC222396EFE00C942729E2E3BF
:1048D000F3E0438121E1421B08F440E021E06281E2
:1048E00081810E94E9230895E2E3F3E0438121E11D
:1048F000420F08F44FEF21E0628181810E94E92399
:104900000895E2E3F3E0628121E1621B08F460E0D4
:1049100021E0438181810E94E9230895E2E3F3E0ED
:10492000628121E1620F08F46FEF21E04381818110
:104930000E94E9230895E2E3F3E0818121E04381CD
:1049400062818A500E94E9230895E2E3F3E08181C5
:1049500021E043816281865F0E94E923089590915E
:10496000320390FF45C09170811102C0926006C071
:104970008B3210F0946502C0880F982B909332030D
:10498000662391F020913203309133034091340338
:10499000509135036091360370913703809138034D
:1049A000909139030E94EC2260913203669570E089
:1049B0004BE050E08AE592E00E947629892B19F0BD
:1049C0001092DB0209C081E08093DB020E94D40ACE
:1049D00090939C0480939B0481E080939E0420E04C
:1049E0004091350360913403809133030E94E923A1
:1049F0000895809132038695815009F48AE261E03E
:104A00000E94AF2408958091320386958F5F8B3288
:104A100008F081E061E00E94AF240895A3E0B0E0D7
:104A2000E4E1F5E20C9418299091320390FF0AC05A
:104A30009E012F5F3F4F0E945A234B8169818A81DB
:104A40000E94C1222396E2E00C943429A0E0B0E059
:104A5000ECE2F5E20C9411297C0100919204109192
:104A600093048091890490918A04082B192BCFE03C
:104A7000D0E0CC24C394D12CC6010C2E02C0880FE8
:104A8000991F0A94E2F780239123892B21F421971F
:104A900098F7B12C09C0BC2EB7018C2F0E94581872
:104AA0000E947518019799F38B2DCDB7DEB7E9E019
:104AB0000C942D29CF93DF93EC010E942625BE0193
:104AC0000E9458180E947518DF91CF910895923076
:104AD00078F5853068F5E82FF0E085E0989FE00DE7
:104AE000F11D11249E2F977083E0F695E7958A9526
:104AF000E1F7EE0FFF1FEE0FFF1FEE55FB4F40E0FB
:104B000050E080E0219130E0092E02C036952795D3
:104B10000A94E2F721703327042E01C0220F0A9471
:104B2000EAF7822B4F5F5F4F4430510559F70895E4
:104B300080E00895923088F5853078F5E82FF0E030
:104B400085E0989FE00DF11D11248E2F877051E0B4
:104B500001C0550F8A95EAF783E0F695E7958A95A7
:104B6000E1F7EE0FFF1FEE0FFF1FEE55FB4F20E0AA
:104B700030E070E04081CB01022E02C0969587950F
:104B80000A94E2F781708195842785238427819395
:104B90002F5F3F4F2430310569F7089590939304B8
:104BA00080939204089521E030E002C0220F331F69
:104BB0008A95E2F720953095809192049091930424
:104BC000822393230E94CE25089521E030E002C085
:104BD000220F331F8A95E2F78091920490919304FB
:104BE000822B932B0E94CE25089590938A04809364
:104BF00089040895FC012481222311F18781908585
:104C0000009719F00E94751804C0808191810E945C
:104C10005A2592959F70963079F010F4925001C009
:104C20009A50923068F4803F69F018F4883E40F45E
:104C300009C0843F29F406C0883E20F0813F11F06E
:104C400080E0089581E008951092880480915102D7
:104C5000882331F08091C20387FF02C08EE101C03A
:104C600086E0E5EFF3E0DF011D928A95E9F780E049
:104C700090E00E948B0B80E090E00E94660B109207
:104C80003D030E942B1A0895A2E1B0E0EAE4F6E2A7
:104C90000C9416290A871B872C873D874E875F87D0
:104CA000688B798B8A8BCE010A960E94151B811125
:104CB0003BC089E0FE013A96DE01119601900D920B
:104CC0008A95E1F76E85662379F120911C0430E026
:104CD000C9010196877099274091650450E08417B7
:104CE0009507A1F06D8399E0929FD001939FB00D3D
:104CF0001124A35EBB4FFE01319601900D929A954F
:104D0000E1F780931C040E94B21A0EC00E94242670
:104D100010921C0410926504E3E1F4E089E0DF01E5
:104D20001D928A95E9F719C019E080916504909168
:104D30001C04891791F0189FC0011124835E9B4FBA
:104D40000E94151B882349F08091650490E001962C
:104D50008770992780936504E8CF6296E4E00C940D
:104D60003229882341F0809590913D0389238093D7
:104D70003D030E942B1A0895882339F090913D033A
:104D8000892B80933D030E942B1A0895882321F0DC
:104D90000E94241A0E942B1A0895882339F09091BA
:104DA0008804892B809388040E942B1A08958823F5
:104DB00049F1682F8CEF860F813A28F483EF93E056
:104DC0000E94090B0CC080E2860F883058F467708F
:104DD00081E001C0880F6A95EAF70E94241A0E94B8
:104DE0002B1A08958BE5860F833028F480E090E03D
:104DF0000E948B0B0895685A6B3120F480E090E09C
:104E00000E94660B0895CF93882309F469C0C82FC8
:104E10008CEF8C0F813AC0F5809151028823E1F02C
:104E20008091C20387FF18C0EC2FE695E695E695C2
:104E3000F0E0ED50FC4F8281282F30E04C2F47707E
:104E400081E090E002C0880F991F4A95E2F7822323
:104E50009323892B61F412C0E5EFF3E08BEF93E02D
:104E60002191C21721F08E179F07D1F707C06C2F31
:104E700083EF93E00E94090B0E942B1A6C2F83EFA3
:104E800093E00E94310B10C080E28C0F883078F4E0
:104E9000C77081E090E001C0880FCA95EAF7909151
:104EA0008804892B809388040E942B1A19C0EBE593
:104EB000EC0FE33040F4F0E0EB59FD4F808190E0DF
:104EC0000E948B0B0DC0C85ACB3150F4EC2FF0E090
:104ED000EE0FFF1FE859FD4F808191810E94660B04
:104EE000CF9108951F93CF93DF93182F893319F033
:104EF000C0E0D0E002C0C0E5D0E0812F0E940327CF
:104F0000209741F08FE99FE00197F1F700C0000082
:104F10002197F6CF812F0E94D726DF91CF911F9145
:104F200008958F929F92AF92BF92CF92DF92EF92AD
:104F3000FF92CF93DF93EC01688179818A819B8115
:104F4000611571058105910521F464E279ED8BE528
:104F500097E02DE133EF41E050E00E944E284901F7
:104F60005A019B01AC01A7EAB1E40E946D286B01D4
:104F70007C01ACEEB4EFA50194010E947B28DC011A
:104F8000CB018C0D9D1DAE1DBF1DB7FF03C001974A
:104F9000A109B04888839983AA83BB839F77DF9157
:104FA000CF91FF90EF90DF90CF90BF90AF909F9008
:104FB0008F9008950E949127089580E091E00E94CB
:104FC00091270895A0E0B0E0809300019093010143
:104FD000A0930201B09303010895FB01DC0102C01C
:104FE00005900D9241505040D8F70895F999FECFA1
:104FF00092BD81BDF89A992780B50895A6E1B0E0E9
:1050000044E050E00C944028A8E1B0E042E050E0D9
:105010000C944028DC01A40FB51F4150504048F0CB
:10502000CB01840F951F2E910E941B2841505040A8
:10503000D0F70895262FF999FECF92BD81BDF89A39
:10504000019700B4021639F01FBA20BD0FB6F894CC
:10505000FA9AF99A0FBE08950396272F0E941B28EB
:105060000E941A28252F0E941B28242F0C941B28ED
:105070000196272F0E941B280C941A28DC01CB01D3
:10508000FC01F999FECF06C0F2BDE1BDF89A319658
:1050900000B40D9241505040B8F70895052E97FB8B
:1050A0001EF400940E94652857FD07D00E948028B6
:1050B00007FC03D04EF40C9465285095409530952C
:1050C00021953F4F4F4F5F4F089590958095709574
:1050D00061957F4F8F4F9F4F08950E94A228A59FF3
:1050E000900DB49F900DA49F800D911D11240895E3
:1050F000B7FF0C946D280E946D28821B930B0895B6
:10510000A1E21A2EAA1BBB1BFD010DC0AA1FBB1FCB
:10511000EE1FFF1FA217B307E407F50720F0A21B3D
:10512000B30BE40BF50B661F771F881F991F1A94AA
:1051300069F760957095809590959B01AC01BD01D4
:10514000CF010895A29FB001B39FC001A39F700D2E
:10515000811D1124911DB29F700D811D1124911D7F
:105160000895991B79E004C0991F961708F0961BC3
:10517000881F7A95C9F78095089587FB082E062623
:1051800087FD819567FD61950E94B1280EF4919588
:1051900007FC81950895AA1BBB1B51E107C0AA1FFC
:1051A000BB1FA617B70710F0A61BB70B881F991FC8
:1051B0005A95A9F780959095BC01CD01089597FB6C
:1051C000072E16F4009407D077FD09D00E94CB2853
:1051D00007FC05D03EF4909581959F4F08957095FA
:1051E00061957F4F0895EE0FFF1F0590F491E02D1C
:1051F00009940E94A228332312F48A1B9B0B0C945F
:1052000003290E94A228B7FF0895821B930B0895DB
:105210002F923F924F925F926F927F928F929F92C6
:10522000AF92BF92CF92DF92EF92FF920F931F93B4
:10523000CF93DF93CDB7DEB7CA1BDB0B0FB6F89465
:10524000DEBF0FBECDBF09942A88398848885F84A5
:105250006E847D848C849B84AA84B984C884DF8016
:10526000EE80FD800C811B81AA81B981CE0FD11DFA
:105270000FB6F894DEBF0FBECDBFED0108950F93BA
:10528000083090F0982F872F762F652F542F432FBB
:10529000322F22270850F4CF220F331F441F551FEF
:1052A000661F771F881F991F0A95B2F70F910895FF
:1052B00097FB10F8169400080F93083098F00850E8
:1052C000232F342F452F562F672F782F892F902D7E
:1052D000F4CF05949795879577956795579547955A
:1052E000379527950A95AAF70F910895FC0141502B
:1052F000504030F001900616D1F73197CF01089554
:10530000882799270895FB01DC0104C08D91019045
:10531000801921F441505040C8F7881B990B08951B
:04532000F894FFCF2F
:1053240001000000010201DE02417E000000D802FB
:10533400427E000000D202437E000000CC02447E84
:10534400000000C602457E000000C002467E000048
:1053540000BA02477E000000B402487E000000AE9E
:1053640002497E000000A8024A7E000000A2024B0F
:105374007E0000009C024C7E00000096024D7E00E0
:10538400000090024E7E0000008A024F7E00000062
:105394008402507E0000007E02517E0000007802EC
:1053A400527E0000007202537E0000006C02547EA4
:1053B4000000006602557E0000006002567E000078
:1053C400005A02577E0000005402587E0000004E2E
:1053D40002597E00000048025A7E00000042025B2F
:1053E4007E0000003C025C7E00000036025D7E0010
:1053F400000030025E7E0000002A025F7E00000092
:105404002402607E0000001E02617E00000018027B
:10541400627E0000001202637E0000000C02647EC3
:105424000000000602657E0000000002667E0000A7
:1054340000FA01677E000000F401687E000000EEBF
:1054440001697E000000E8016A7E000000E2016B51
:105454007E000000DC016C7E000000D6016D7E0041
:105464000000D0016E7E000000CA016F7E000000C3
:105474000101FF09B611AE11AF1101191A1B1C1D50
:105484001E1F202122818283E200E900EA00B50088
:10549400B600B700CD008301CC008A0192019401CB
:1054A4002102230224022502260227022A02B30033
:1054B400B4006F0070009F01CB019F02A002F7F6B9
:1054C400F5F436323331C634000102020202060614
:1054D400060909090909090F0F0F0F0F0F151515F3
:1054E40018191919191919191919192324252525F0
:0454F4002525250045
:00000001FF
